:020000040800F2
:1000000000040020CF01000873100008D509000883
:10001000391000085B0500080F1A000800000000F6
:100020000000000000000000000000005F14000855
:100030001107000800000000E5100008D1160008B4
:10004000EF010008EF010008EF010008EF010008D0
:10005000EF010008EF010008EF010008EF010008C0
:10006000EF010008EF010008EF010008EF010008B0
:10007000EF010008EF010008EF010008EF010008A0
:10008000EF010008EF010008EF010008EF01000890
:10009000EF010008EF010008EF0100081507000854
:1000A000EF010008EF010008EF010008EF01000870
:1000B000EF010008D5160008EF010008EF01000865
:1000C000EF010008EF010008EF010008EF01000850
:1000D000EF010008EF010008EF010008EF01000840
:1000E000EF010008EF010008EF010008EF01000830
:1000F000EF010008EF010008EF010008EF01000820
:10010000EF010008EF010008EF010008EF0100080F
:10011000EF010008EF010008EF010008EF010008FF
:10012000EF010008EF010008EF010008EF010008EF
:1001300000F002F800F03AF80AA090E8000C8244BF
:100140008344AAF10107DA4501D100F02FF8AFF29C
:10015000090EBAE80F0013F0010F18BFFB1A43F0A5
:1001600001031847441A0000641A0000103A24BF23
:1001700078C878C1FAD8520724BF30C830C144BF0C
:1001800004680C607047000000230024002500264E
:10019000103A28BF78C1FBD8520728BF30C148BFEA
:1001A0000B6070471FB51FBD10B510BD00F035F8CE
:1001B0001146FFF7F7FF01F060FC00F053F803B4BD
:1001C000FFF7F2FF03BC00F05BF8000070470B483C
:1001D00080470B4981F308880A480047FEE7FEE79D
:1001E000FEE7FEE7FEE7FEE7FEE7FEE7FEE7FEE7E7
:1001F00005480649044A064B70470000CD01000837
:10020000E002002031010008E0000020E0020020B0
:10021000E0000020704770477047754600F02CF8EA
:10022000AE4605006946534620F00700854618B0E3
:1002300020B5FFF7DDFFBDE820404FF000064FF08E
:1002400000074FF000084FF0000B21F00701AC460B
:10025000ACE8C009ACE8C009ACE8C009ACE8C0092A
:100260008D46704710B50446AFF300802046BDE8C8
:100270001040FFF7A4BF0000004870477C0000203A
:1002800001491820ABBEFEE726000200704770B59A
:1002900004460D4615B900F013FD70BD072C16D2AB
:1002A000DFE804F0111204080B0E050000BF00F097
:1002B000FFFC0FE000F028FD0CE000F0FDFC09E081
:1002C00000F026FD06E000BF00F026FD02E000F091
:1002D000B1FB00BF00BF00BFDFE7000010B5044660
:1002E000072C26D2DFE804F02504090F141A1F009A
:1002F0000021084600F044F91EE041F2680108467A
:1003000000F03EF918E00D49084600F039F913E015
:100310004FF46161484200F033F90DE0084948426A
:1003200000F02EF908E04FF42F61084600F028F99C
:1003300002E000F037F900BF00BF10BD80F3FFFFFF
:10034000F0F1FFFF70B504460D4604B970BD4C20B6
:1003500060702A460021204600F084FA00BFF5E7CD
:100360002DE9F04104460D46174614B90020BDE8BA
:10037000F081532D08D1207820B13A460021204643
:1003800000F070FA0020F2E760683E1A2078092831
:1003900066D2DFE800F00518232C3543444D5D009C
:1003A000462D05D13A460121204600F05BFA09E0CE
:1003B000284600F011FB28B165703A46032120461B
:1003C00000F050FA52E0284600F006FB28B16570B4
:1003D0003A460221204600F045FA47E0B6F5B47FE0
:1003E00004D33A460321204600F03CFA3EE0B6F53D
:1003F000E17F04D33A460421204600F033FA35E089
:10040000642E0AD360784C2801D1052000E0062034
:1004100001463A46204600F025FA27E000BFB6F52F
:10042000FA7F04D33A460721204600F01BFA1DE06C
:10043000FA2E0CD3462D05D13A460121204600F074
:1004400011FA04E03A460821204600F00BFA0DE0CC
:10045000462D04D13A460121204600F003FA05E07A
:100460003A460021204600F0FDF900BF00BF2046BB
:1004700000F0E4FD7BE710B503460C462146184624
:1004800000F005F808B9532010BD1879FCE70246C2
:100490000AB1507908B9002070479068081AB0F581
:1004A0007A7F01D80120F7E70020F5E700B970470F
:1004B000002101704170532181700021C1705321CE
:1004C000017100214171816000BFF0E770B5044601
:1004D0000D46164604B970BD2078052835D2DFE8F0
:1004E00000F00308151C23002946204600F0ACFF4D
:1004F00030E05A2D05D1E0786840E070022020708D
:1005000003E02946204600F09FFF23E06570E07875
:100510006840E070032020701CE0A570E07868401F
:10052000E0700420207015E0E078A84208D1A0789F
:1005300000F05BFA20B1A0782071A6600120607104
:100540002946204600F080FF04E02946204600F0BE
:100550007BFF00BF00BF00BFBDE700BFFEE700009C
:100560000146B1F5E15F02DB41F61F40704711F52E
:10057000E15F01DC0148F9E70846F7E7E1E3FFFF47
:1005800070B505460C462846FFF7EAFF0349088088
:100590002046FFF7E5FF0249088070BD12000020E9
:1005A0001400002010B50020064908800649088084
:1005B000064908800649088000F052FF002000F03C
:1005C0006BFF10BD12000020140000201600002058
:1005D0001800002000B589B001210C2000F0BAFD00
:1005E0000121042000F0A6FD4FF4C040ADF820002A
:1005F00010208DF8230003208DF8220008A92D4833
:1006000000F054F9C320ADF8200048208DF82300F5
:1006100003208DF8220008A9274800F047F9C020E0
:10062000ADF8200018208DF8230003208DF822005B
:1006300008A9204800F03AF905A801F0DFF941F6D1
:100640001F40ADF818000920ADF814000020ADF8E7
:100650001A00ADF8160005A9184801F07DF901A8A7
:1006600001F06BF96020ADF804000120ADF8060040
:100670000020ADF80A00ADF80C0001A90F4801F008
:10068000A7F801A90D4801F0F9F808210B4801F07D
:10069000EBF80821094801F043F90121074801F06E
:1006A00061F8FFF77FFF0121044801F06AF809B003
:1006B00000BD0000000C014000080140000800409F
:1006C00010B50F48B0F900100E48B0F9000000F066
:1006D0007FFE0C4908800C48B0F900100B48B0F9B7
:1006E000000000F075FE094908800648B0F90000D6
:1006F00000F0B6FE0548B0F9000000F0CDFE10BDD8
:100700001200002016000020140000201800002015
:100710007047000010B54FF4807000F045F800B944
:1007200010BD4FF4807000F039F84FF48071154817
:1007300000F047F900B1F3E71348006820F4807037
:100740001149086000201149087011490870012002
:10075000104908704FF41C710F4801F0F8F800219F
:100760000D4801F0F6F801210B4801F007F80122CD
:100770001146094801F022F80121074801F001F86B
:1007800000BFCDE7000C0140000401401E00002026
:100790001F000020200000200004004001490860E4
:1007A0007047000014040140014600200022074B5E
:1007B0001B6803EA0102054B14331B680B4013B19D
:1007C0000AB1012000E00020704700000004014051
:1007D000002123498279002A3AD00A461268036828
:1007E0009A430B461A600A1D126803689A430B1D50
:1007F0001A60027911440A6803681A430A60184AA9
:100800000832126803689A43154B08331A601A1DA0
:10081000126803689A43124B0C331A604279102A0B
:100820000ED11A1F126803681A430D4B08331A6061
:100830001A1D126803681A43094B0C331A600DE045
:100840000749427911440A6803681A430A6005E0BF
:10085000027911440A6803689A430A6070470000ED
:1008600000040140017042607047000030B5002272
:100870008B071C0F0F2303FA04F20B4B8C1053F859
:1008800024309343084C8D1044F8253023468C10B7
:1008900053F824308C07240F00FA04F42343024C4D
:1008A0008D1044F8253030BD080001402DE9F0419D
:1008B000024600250026002000230024002791F88E
:1008C00003C00CF00F0591F803C00CF0100CBCF144
:1008D000000F03D091F802C04CEA050591F800C062
:1008E000BCF1000F31D0146800202BE04FF0010C58
:1008F0000CFA00F3B1F800C00CEA03069E4220D1C6
:1009000083004FF00F0C0CFA03F7BC4305FA03FC0D
:100910004CEA040491F803C0BCF1280F06D14FF053
:10092000010C0CFA00FCC2F814C00AE091F803C0F4
:10093000BCF1480F05D14FF0010C0CFA00FCC2F8D5
:1009400010C0401C0828D1D31460B1F800C0BCF11D
:10095000FF0F34DD546800202EE000F1080C4FF04A
:10096000010808FA0CF3B1F800C00CEA03069E4235
:1009700021D183004FF00F0C0CFA03F7BC4305FAAA
:1009800003FC4CEA040491F803C0BCF1280F05D124
:1009900000F1080C08FA0CF8C2F8148091F803C0B2
:1009A000BCF1480F07D100F1080C4FF0010808FA1C
:1009B0000CF8C2F81080401C0828CED35460BDE863
:1009C000F0810246002093680B400BB1012000E04B
:1009D0000020704700BFFEE701464C2901D0522994
:1009E00001D1012070470020FCE70146462905D0CF
:1009F000532903D04C2901D0522901D1012070473D
:100A00000020FCE701464906084A926942F00102CB
:100A1000064B9A61064A526822F0E062044B5A6023
:100A20001A4652680A435A6070470000001002409C
:100A30000000014010B500F02FF800F0E2F810BD02
:100A400070B500F029F8002411E011480078204426
:100A50000C2190FBF1F201FB1200C5B20D48035DC1
:100A600000221146284600F0AEF8601CC4B2052CE6
:100A7000EBDB00F0C6F80648007818B90B200449F3
:100A8000087004E002480078401E0149087070BDFB
:100A90000D000020831B000810B501240DE0002389
:100AA0001A461946204600F061FA00231A461946F4
:100AB000204600F079FC601CC4B2062CEFDD10BDAE
:100AC00010B5002408E01648017800231A46204695
:100AD00000F079F8601CC4B20C2CF4DB00F091F843
:100AE0000F4800880F490988084400B20C49088063
:100AF0000846B0F90000C82806DBC82008806FF05F
:100B00000900084908800AE00548B0F900000028FB
:100B100005DC0020024908800A200249088010BD37
:100B2000080000200A00002070B5FFF7B5FF002480
:100B300012E0114800780C30001B0C2190FBF1F200
:100B400001FB1200C5B20D48015D00231A4628467C
:100B500000F039F8601CC4B2052CEADB00F051F853
:100B600005480078401C04490870084600780C28A5
:100B700001DB0020087070BD0C0000207E1B000807
:100B8000024602FB01F0FF2390FBF3F0C0B2704776
:100B9000F0B504460D4616461F46062094FBF0F1BC
:100BA00000FB1140C4B2611CC8B23B463246294624
:100BB00000F0DCF9C4F10601C8B23B4632462946D2
:100BC00000F0F2FBF0BDF0B504460D4616461F4698
:100BD0000C2094FBF0F100FB1140C4B2062C07DAA4
:100BE000611CC8B23B463246294600F0BFF907E017
:100BF000C4F10C01C8B23B463246294600F0D4FB92
:100C0000F0BD10B5062000F047F9062000F062FBA9
:100C100010BD00002DE9F041002426E004EBD47261
:100C2000204B1B7803EB6200C21700EBD26252111B
:100C3000A0EB42121C4B9E5CE5207043FF2190FB11
:100C4000F1F01A30C5B22946B420FFF799FF0746E4
:100C500029464620FFF794FF80462B463A464146F8
:100C60002046FFF795FF601CC4B2062CD6DBFFF7C9
:100C7000C8FF0E480078401C0C49087008460078F0
:100C800005280CDB0020087006480078401C054948
:100C9000087008460078202801DB00200870BDE8B5
:100CA000F08100000E000020881B00080F000020CB
:100CB00010B5FFF7AFFF10BD10B5FFF7C1FE10BDB7
:100CC00010B51048007808B9012000E000200D4957
:100CD0000870002411E00B48007830B100231A4658
:100CE00080212046FFF76FFF05E000231A461946D2
:100CF0002046FFF768FF601CC4B20C2CEBDBFFF74B
:100D000080FF10BD1000002010B5FFF7D9FE10BD08
:100D100010B5FFF709FF10BD10B5002407E0002350
:100D20000C2230212046FFF74EFF601CC4B20C2C71
:100D3000F5DBFFF766FF10BD01202949086000BF01
:100D400000BF00BF00BF00BF00BF00BF00BF00BFAB
:100D500000BF00BF00BF00BF00BF00BF00BF00BF9B
:100D600000BF00BF00BF00201E49C1F8B40100BF92
:100D700000BF00BF00BF00BF00BF00BF00BF00BF7B
:100D800000BF00BF00BF00BF00BF00BF00BF00BF6B
:100D900000BF00BF00BF00BF00BF00BF00BF00BF5B
:100DA00000BF00BF00BF00BF00BF00BF00BF00BF4B
:100DB00000BF00BF00BF00BF00BF00BF00BF00BF3B
:100DC00000BF00BF00BF00BF00BF00BF00BF00BF2B
:100DD00000BF00BF00BF00BF00BF00BF70470000E2
:100DE000B40122420000224201202949086000BFCC
:100DF00000BF00BF00BF00BF00BF00BF00BF00BFFB
:100E000000BF00BF00BF00BF00BF00BF00BF00BFEA
:100E100000BF00BF00BF00BF00BF00BF00BF00BFDA
:100E200000BF00BF00BF00BF00BF00BF00BF00BFCA
:100E300000BF00BF00BF00BF00BF00BF00BF00BFBA
:100E400000BF00BF00BF00BF00BF00BF00BF00BFAA
:100E500000BF00BF00BF00BF00BF00BF00200D49A2
:100E6000C1F8B40100BF00BF00BF00BF00BF00BF9A
:100E700000BF00BF00BF00BF00BF00BF00BF00BF7A
:100E800000BF00BF00BF00BF00BF00BF7047000031
:100E9000B40122420000224270B50546002451E010
:100EA0002C48005D00F0800010B9FFF745FF01E01D
:100EB000FFF79AFF2748005D00F0400010B9FFF7E8
:100EC0003BFF01E0FFF790FF2248005D00F02000AB
:100ED00010B9FFF731FF01E0FFF786FF1D48005D05
:100EE00000F0100010B9FFF727FF01E0FFF77CFFCB
:100EF0001848005D00F0080010B9FFF71DFF01E081
:100F0000FFF772FF1348005D00F0040010B9FFF70F
:100F100013FF01E0FFF768FF0E48005D00F00200DC
:100F200010B9FFF709FF01E0FFF75EFF0948005D18
:100F300000F0010010B9FFF7FFFE01E0FFF754FFDA
:100F4000601CC4B205EB4500A042A9DC00F004F827
:100F500070BD00002C00002010B500200249086080
:100F6000422000F07CFD10BDB401224230B5441E89
:100F700004EB4404064D2A55441E04EB4404641C4F
:100F80002955441E04EB4404A41C2B5530BD00001D
:100F90002C00002000B5002015490861C86014200D
:100FA000486100208861C8610846006840F001007F
:100FB0000860084640680F4908400D4948600846E7
:100FC00000680D4908400A4908600846006820F496
:100FD000802008600846406820F4FE004860002039
:100FE000886000214FF0006000F01CF800BD000098
:100FF000001002400000FFF8FFFFF6FE0146072345
:1010000023EA01021202054B18684FF6FF0318404D
:10101000034B18431043014B186070470CED00E080
:101020000000FA05024A0A400243024B1A60704768
:1010300080FFFF1F08ED00E000BFFEE701460878D3
:10104000092814D2DFE800F01305070B080D0F1173
:1010500009000220704700BF00BF0120FAE703200B
:10106000F8E70420F6E70520F4E70620F2E7002081
:10107000F0E7704770B5002100230F22C47804B355
:10108000154C246804F4E064C4F5E064210AC1F15D
:101090000403CA40447804FA03F1847814402143DD
:1010A00009010E4C0678A155047804F01F050124AF
:1010B000AC4005786D11AD0005F1E025C5F80041A3
:1010C00009E0047804F01F050124AC40044D0678C3
:1010D000761145F8264070BD0CED00E000E400E01C
:1010E00080E100E0704700000D4A1278521C02F0C7
:1010F0001F010C4A1278914205D10B4A1268521C0A
:10110000094B1A607047094A054B1B78D054044AB2
:101110001170074A1268521C054B1A6000BFF1E7B4
:101120001C0000201D000020280000205C00002082
:101130002400002029B1064AD2690243044BDA6137
:1011400004E0034AD2698243014BDA617047000030
:101150000010024029B1064A92690243044B9A6189
:1011600004E0034A92698243014B9A617047000090
:101170000010024001202949086000BF00BF00BFE5
:1011800000BF00BF00BF00BF00BF00BF00BF00BF67
:1011900000BF00BF00BF00BF00BF00BF00BF00BF57
:1011A00000BF00201E49C1F8B80100BF00BF00BF4A
:1011B00000BF00BF00BF00BF00BF00BF00BF00BF37
:1011C00000BF00BF00BF00BF00BF00BF00BF00BF27
:1011D00000BF00BF00BF00BF00BF00BF00BF00BF17
:1011E00000BF00BF00BF00BF00BF00BF00BF00BF07
:1011F00000BF00BF00BF00BF00BF00BF00BF00BFF7
:1012000000BF00BF00BF00BF00BF00BF00BF00BFE6
:1012100000BF00BF00BF00BF70470000B8012242FE
:101220000000224201202949086000BF00BF00BF22
:1012300000BF00BF00BF00BF00BF00BF00BF00BFB6
:1012400000BF00BF00BF00BF00BF00BF00BF00BFA6
:1012500000BF00BF00BF00BF00BF00BF00BF00BF96
:1012600000BF00BF00BF00BF00BF00BF00BF00BF86
:1012700000BF00BF00BF00BF00BF00BF00BF00BF76
:1012800000BF00BF00BF00BF00BF00BF00BF00BF66
:1012900000BF00BF00BF00BF00200D49C1F8B8016A
:1012A00000BF00BF00BF00BF00BF00BF00BF00BF46
:1012B00000BF00BF00BF00BF00BF00BF00BF00BF36
:1012C00000BF00BF00BF00BF70470000B80122424E
:1012D0000000224270B50546002451E02C48005D14
:1012E00000F0800010B9FFF745FF01E0FFF79AFF1B
:1012F0002748005D00F0400010B9FFF73BFF01E018
:10130000FFF790FF2248005D00F0200010B9FFF7C2
:1013100031FF01E0FFF786FF1D48005D00F010007F
:1013200010B9FFF727FF01E0FFF77CFF1848005DC9
:1013300000F0080010B9FFF71DFF01E0FFF772FF92
:101340001348005D00F0040010B9FFF713FF01E03F
:10135000FFF768FF0E48005D00F0020010B9FFF7CC
:1013600009FF01E0FFF75EFF0948005D00F00100A2
:1013700010B9FFF7FFFE01E0FFF754FF601CC4B295
:1013800005EB4500A042A9DC00F004F870BD0000A8
:101390004400002010B5002002490860422000F0FF
:1013A0005EFB10BDB801224230B5441E04EB44047C
:1013B000064D2A55441E04EB4404641C2955441E62
:1013C00004EB4404A41C2B5530BD00004400002055
:1013D00002468A4208DA02F1FA0002B28A4201DDCC
:1013E000084670471046FCE78A4208DDA2F1FA0081
:1013F00002B28A4201DA0846F3E71046F1E71046E6
:10140000EFE7000010B500210C4800F0BAF9002207
:1014100001210A4800F0D2F90121084800F0AEF994
:101420004FF48070FFF7BAF90548006840F4807007
:101430000349086000200349087010BD0004004003
:101440000004014020000020A52904D101220270DF
:10145000A522C27002E000220270C270704770477D
:1014600010B504462046FFF77BF80446002C05DB48
:1014700000200749086007490C8008E00120044962
:101480000860604241F61F41081A0249088010BDF9
:10149000B88121423808004010B504462046FFF7C5
:1014A0005FF80446002C05DB002007490860074967
:1014B0000C8008E0012004490860604241F61F41A9
:1014C000081A0249088010BDB48121423408004046
:1014D00001480068704700002400002000B587B074
:1014E00001210920FFF736FE01210220FFF722FE2D
:1014F0004FF48070ADF8180048208DF81B000320D1
:101500008DF81A0006A93348FFF7D0F90821012009
:10151000FFF7ACF94FF48070049000208DF81400B0
:101520000C208DF8150001208DF8160004A8FFF797
:101530004FF94FF48070FFF731F94720ADF8040000
:101540000020ADF806004FF4D070ADF80800002080
:10155000ADF80A008DF80C0001A91F4800F0FCF955
:1015600000211D4800F00DF9002201211A4800F069
:1015700025F90121184800F001F91D208DF800001F
:1015800000208DF801008DF8020001208DF8030085
:101590006846FFF76FFD17208DF8000000208DF8DA
:1015A000010001208DF802008DF803006846FFF766
:1015B00061FD00200949087009490870094908704F
:1015C0000949087009490870094908600949086013
:1015D00007B000BD000C0140000400401C000020CA
:1015E0001D0000201E0000201F0000202000002001
:1015F00024000020280000200148007870470000E7
:1016000020000020014629B10A4800780A4A1278D1
:10161000904201D1002070470848064A1278805C49
:10162000087004480078401C00F01F00014A107048
:101630000120F0E71D0000201C0000205C000020BD
:1016400030B504460025FFF7A5FC1F48006840F4AC
:1016500080301D49086000BF1B480068400C00280E
:10166000FAD04FF4806018494860A01EC4B2084602
:10167000406840EA844048600846406840F4803052
:1016800048601248006840F03200104908600E4877
:10169000006840F080700C49086000BF0A4800688C
:1016A000400E0028FAD00848406840F00200064981
:1016B000486005E004484068C0F3870505F003056D
:1016C000022DF7D130BD0000001002400020024082
:1016D0007047000010B501211D4800F05EF800B908
:1016E00010BD01211A4800F049F81A48007810B9D5
:1016F000FFF788FEF4E71848007808281AD24FF45C
:1017000080711648FFF75DF948B113480178012050
:101710008840C0B2124909780843114908700E4840
:101720000078401C0C4908704FF4D071084800F054
:101730000EF9D5E74FF480710848FFF742F918B168
:1017400007480078FFF7D0FCFFF75CFE00BFC7E753
:1017500000040040200000201F000020000C014079
:101760001E00002021B1028842F08002028004E0C5
:1017700002884FF67F731A4002807047CA43028284
:10178000704721B1028842F00102028004E0028821
:101790004FF6FE731A400280704730B502460020B3
:1017A00000230024158A05EA0103958905EA01044E
:1017B00013B10CB1012000E0002030BD1AB18389C3
:1017C0000B43838102E083898B4383817047000050
:1017D00070B5002400220023058C4FF6FE763540BC
:1017E0000584028C8388048B4FF68F752C40B51EC0
:1017F0002C400D882C43751E2A400D892A434D88A4
:101800002A43144DA8420BD0134DA84208D0134DC3
:10181000A84205D0124DA84202D0124DA84213D1C1
:101820004FF6F7752A404D892A434FF6FB752A403B
:101830008D882A434FF6FF652B404FF6FF552B400E
:101840008D892B43CD892B4383800483CD88858666
:10185000028470BD002C0140003401400040014072
:1018600000440140004801400A460021018B4FF628
:10187000F7731940114301837047000070B50024CD
:1018800000220023058C4FF6EF7635400584028C4C
:101890008388048B48F6FF752C404FF6FF452C409B
:1018A0000D884FF6FF7606EA05252C434FF6DF75C7
:1018B0002A400D8906EA05152A434D8806EA0515D2
:1018C0002A43154DA84202D0144DA8421DD14FF60F
:1018D0007F752A404D894FF6FF7606EA05152A43A3
:1018E0004FF6BF752A408D8806EA05152A434FF644
:1018F000FF352B404FF2FF752B408D8906EA850599
:101900002B43CD8906EA85052B4383800483CD884C
:101910000587028470BD0000002C014000340140A6
:101920000A460021018B4FF2FF7319404FF6FF73F7
:1019300003EA02231943018370470021018041809B
:101940008180C180018141818181C1817047818510
:101950007047818470470000002202881D4B984226
:101960000ED01D4B98420BD0B0F1804F08D01B4BCE
:10197000984205D01A4B984202D01A4B984204D193
:101980004FF68F731A404B881A43174B984207D073
:10199000164B984204D04FF6FF431A40CB881A43A7
:1019A00002808B8883850B8803850A4B98420BD075
:1019B000094B984208D00E4B984205D00D4B9842E7
:1019C00002D00D4B984201D10B7A0386012383820A
:1019D00070470000002C014000340140000400402A
:1019E00000080040000C00400010004000140040BF
:1019F0000040014000440140004801404FF6FF71A3
:101A0000818000210180C18041800172704700BF48
:101A1000FEE7000008B501211020FFF79BFB4FF403
:101A2000C040ADF8000010208DF8030003208DF8B1
:101A3000020069460148FEF739FF08BD0010014069
:101A400007E041F64B4100BF0A1EA1F1010399B224
:101A5000FAD1021EA0F1010398B2F2D1704706E05C
:101A6000082100BF0A1EA1F1010399B2FAD1021E9A
:101A7000A0F1010398B2F3D1704788B04FF000098C
:101A800000250027AA464FF0640864260920FFF7C6
:101A9000D7FD0220FFF7B2FA0220FEF7B3FF0120C4
:101AA000FEF7B0FFFEF796FDFFF718FDFFF7B2FF58
:101AB00005A8FEF7FBFC294603A8FEF743FCFEF74A
:101AC00071FDFEF7B7FF47E005E02A469DF80810D4
:101AD00005A8FEF7FBFC02A8FFF794FD0028F4D14F
:101AE000FFF7F6FC0746574501D0BA4600262946BF
:101AF00005A8FEF7CCFC0190294605A8FEF7BBFC23
:101B000083462A46594603A8FEF72AFC04464C455C
:101B100003D02046FEF7E2FBA146FEF7D1FDB8F167
:101B2000640F0ADB142E08DBFFF766FD28B9204698
:101B30000199FEF7ACFB4FF000081420FFF780FF7F
:101B4000143508F114001FFA80F84FF6EB70864246
:101B500002DC06F1140086B2B6E7FF0000FFFF00CA
:101B600000FF0000FFFF0000FFFF00FFFF0000FF7D
:101B7000FF0000FF0000FFFF0000FFFF00FFFFA0CD
:101B80005A2D0FFFA05A2D0F00020A1625384F6755
:101B90008098B0C7DAEAF5FDFFFDF5EADAC7B0983C
:101BA00080674F3825160A02C81B00080000002075
:101BB0002C0000006C010008F41B00082C00002021
:101BC000B4020000880100080101000000000000CC
:101BD00000000A00000000000000000000000000FB
:101BE00000000000000000000000000000000000F5
:041BF00000000000F1
:04000005080001CF1F
:00000001FF
