:020000040800F2
:1000000000040020D7010008790F0008E30A000867
:10001000750F0008E5040008B32000080000000088
:100020000000000000000000000000004115000872
:100030005108000800000000F90F000861170008CF
:10004000F7010008F7010008F7010008F7010008B0
:10005000F7010008F7010008F7010008F7010008A0
:10006000F7010008F7010008F7010008F701000890
:10007000F7010008F7010008F7010008F701000880
:10008000F7010008F7010008F7010008F701000870
:10009000F7010008F7010008F7010008F701000860
:1000A000F7010008F7010008F7010008F701000850
:1000B000F7010008F7010008F7010008F701000840
:1000C000F7010008F7010008F7010008F701000830
:1000D000F7010008C91E0008F7010008F701000831
:1000E000F7010008F7010008F7010008F701000810
:1000F000F7010008F7010008F7010008F701000800
:10010000F7010008F7010008F7010008F7010008EF
:10011000F7010008F7010008F7010008F7010008DF
:10012000F7010008F7010008F7010008F7010008CF
:1001300000F002F800F03FF80AA090E8000C8244BA
:100140008344AAF10107DA4501D100F034F8AFF297
:10015000090EBAE80F0013F0010F18BFFB1A43F0A5
:10016000010318475426000074260000103A24BFEB
:1001700078C878C1FAD8520724BF30C830C144BF0C
:1001800004680C607047000000230024002500264E
:10019000103A28BF78C1FBD8520728BF30C148BFEA
:1001A0000B607047642900F04780002070471FB53E
:1001B0001FBD10B510BD00F063F91146FFF7F7FF42
:1001C00001F0BCFF00F081F903B4FFF7F2FF03BCBC
:1001D00001F071FF70470B4880470B4981F3088895
:1001E0000A480047FEE7FEE7FEE7FEE7FEE7FEE718
:1001F000FEE7FEE7FEE7FEE705480649044A064B30
:1002000070470000D5010008F80200203101000805
:10021000F8000020F8020020F800002070470000DD
:100220000FB4044910B503AA029800F0FBF810BC03
:100230005DF814FB000000202DE9F0410646002483
:1002400010687529314616A510D0AFF3008000283C
:1002500002DA404213A507E031688A0701D512A5EA
:1002600002E0490704D511A5012401E0AFF30080A5
:1002700000210A2206F1240709E0B0FBF2FCB0FBE2
:10028000F2F302FB1C00303078541846491C002859
:10029000F3D123462A463046BDE8F04100F068B865
:1002A000000000002D0000002B00000020000000D6
:1002B0002DE9F0410F460546002028622846E968EE
:1002C000884770B3252805D0D5E901219047286AD1
:1002D000401CF2E7E9682846002688476C28044657
:1002E0000AD0682C08D04C2C35D06A2C31D0742C14
:1002F00031D07A2C2FD016E0E96806462846884788
:10030000B042044608D16C2E23D04FF480662846B4
:10031000E9688847044606E06C2E03D04FF48076E7
:1003200001E01EE04026E4B1A4F14100192802D802
:10033000203446F400663A46214628462E60FFF7F0
:1003400031FF60B1012808D0FF1D27F007070837EB
:10035000B4E78026DBE70026D9E73F1DAEE720465D
:10036000B2E7286ABDE8F081704770477047704770
:100370002DE9F0470D4699469246044600F12408BF
:100380000168880604D5E06921F01001216000E0D1
:100390000120A84201DD471B00E00027A1697A196E
:1003A00002EB0900081AA0612078C00602D420469A
:1003B000AFF30080002608E0D4E901211AF8060016
:1003C0009047206A401C761C20624E45F4DB207862
:1003D000C0060AD52046AFF3008006E0D4E901212B
:1003E00030209047206A401C2062381EA7F1010788
:1003F000F4DC07E0D4E9012118F805009047206AF1
:10040000401C2062281EA5F10105F3DC2046AFF355
:1004100000802078000602D50220BDE8F087012088
:10042000FBE70000074B70B50D467B4400F011F868
:100430000446284600F020F810B14FF0FF3070BDA0
:10044000204670BDF31C000001694A1C0261087857
:10045000704700B58FB0CDE9013100210591054904
:100460007944CDE9031011466846FFF721FF0FB02C
:1004700000BD0000E5FFFFFF007B00F0800070473B
:10048000754600F02BF8AE4605006946534620F04D
:100490000700854618B020B5FFF7AEFEBDE8204046
:1004A0004FF000064FF000074FF000084FF0000B30
:1004B00021F00701AC46ACE8C009ACE8C009ACE8E3
:1004C000C009ACE8C0098D46704710B50446AFF3CB
:1004D00000802046BDE81040FFF776BE0048704718
:1004E0009400002000BFFEE710B5044641F61F420D
:1004F0005142204600F001F810BD03468B4201DA5C
:1005000008467047934201DD1046FAE71846F8E7BF
:100510002DE9F04700F086FF3148007878B900F007
:1005200047FA00F023F92F48007810B100F02AFBB9
:1005300001E000F043FB00F057FFBDE8F0872A48D8
:100540000088B0F5FA6F09DB00F0A6FF27A0FFF7DF
:1005500067FE00F017FB00F047FFEEE7022000F017
:1005600025FF06B2304600F041FD0446032000F0AE
:100570001DFF06B2304600F03CFD05462148B0F9AB
:10058000000000F03BFD07461F48B0F9000000F0F6
:1005900035FD8046224639461C4801F043F8814625
:1005A0002A4641461A4801F03DF8824651464846DF
:1005B00000F0D2F800F094FF00F016FF0A4800881F
:1005C00040F29E71884205DC0748008832300649B7
:1005D000088003E04FF4FA600349088000BFACE7ED
:1005E0005F000020600000205C00002052454D4F5D
:1005F00054452C54494D454F55542C53544F500D90
:100600000A000000580000205A0000204800002086
:100610005000002010B500F005FF002211460D48E3
:1006200000F0F4FF002211460B4800F0EFFF00201D
:100630000A4908800A4908800A4908700A4908706E
:1006400000F094F800200949087014200849087047
:1006500010BD00004800002050000020580000207D
:100660005A0000205F000020600000206100002090
:100670006200002010B500F0D5FE0348007810B9E4
:1006800004200249087010BD6200002061000020B3
:100690002DE9F04705460C4600F0C4FEFA2251420F
:1006A0002846FFF72AFF0546FA2251422046FFF767
:1006B00024FF04461F48B0F9000000F0CAF8804645
:1006C0001D48B0F9000000F0C4F88146284600F04B
:1006D000C0F80646204600F0BCF80746B04509D0F1
:1006E0003146012000F02EFF824652463146134823
:1006F00000F08CFFB94509D03946002000F022FFF8
:100700008246524639460E4800F080FF094805806F
:100710000948048000200B49088001200A4908701C
:1007200000200A4908700A4908700A490870BDE8A3
:10073000F0870000580000205A00002048000020E8
:10074000500000205C0000205F00002060000020BE
:10075000610000206200002070B505460C46284666
:1007600000F00CFF204600F02DFF70BD10B50021F9
:100770000846FFF7F1FF10BD00B589B00121082040
:1007800000F06CFC0121042000F058FC4FF4C04044
:10079000ADF8200010208DF8230003208DF82200F2
:1007A00008A9294800F012F9C020ADF8200018204F
:1007B0008DF8230003208DF8220008A9224800F0BC
:1007C00005F905A801F0CAFA41F61F40ADF8180076
:1007D0000920ADF814000020ADF81A00ADF816009D
:1007E00005A91A4801F068FA01A801F02CFA602066
:1007F000ADF804000120ADF806000020ADF80A00B5
:10080000ADF80C0001A9114801F068F901A90F48E1
:1008100001F0BAF908210D4801F0ACF908210B48A4
:1008200001F004FA0121094801F0BCF8FFF79EFF2E
:100830000121064801F0C2F800F038F800F078F81D
:1008400000F0B6F809B000BD000C014000080040FF
:1008500070470146002901DD01207047002902DAB6
:100860004FF0FF30F9E70020F7E73EB50446684651
:1008700001F02AF90020ADF802000120ADF80400D3
:100880000020ADF806000A20ADF808000020ADF801
:1008900000006946204601F0C1F80420ADF80000D0
:1008A0006946204601F0BAF83EBD00001FB501219F
:1008B000084600F0C3FB0121042000F0CFFB032019
:1008C000ADF8000004208DF8030003208DF802002D
:1008D0006946164800F07AF801A801F03FFA0020B6
:1008E000ADF804004FF6FF70ADF808000020ADF839
:1008F0000A00ADF8060001A94FF0804001F0DCF9D4
:1009000000231A4603214FF0804001F063F84FF0B6
:100910008040FFF7AAFF00214FF0804001F09DF9D1
:100920000121880701F04AF81FBD000000080140BE
:100930001FB50121022000F081FB0121042000F0FD
:100940008DFBC020ADF8000004208DF803000320CB
:100950008DF802006946144800F038F801A801F04B
:10096000FDF90020ADF804004FF6FF70ADF8080067
:100970000020ADF80A00ADF8060001A90B4801F00F
:100980009BF900231A460321084801F023F8074881
:10099000FFF76BFF0021054801F05FF901210348D3
:1009A00001F00CF81FBD00000008014000040040E9
:1009B00010B500214FF0804001F04FF900210248AE
:1009C00001F04BF910BD0000000400402DE9F0419A
:1009D000024600250026002000230024002791F86D
:1009E00003C00CF00F0591F803C00CF0100CBCF123
:1009F000000F03D091F802C04CEA050591F800C041
:100A0000BCF1000F31D0146800202BE04FF0010C36
:100A10000CFA00F3B1F800C00CEA03069E4220D1A4
:100A200083004FF00F0C0CFA03F7BC4305FA03FCEC
:100A30004CEA040491F803C0BCF1280F06D14FF032
:100A4000010C0CFA00FCC2F814C00AE091F803C0D3
:100A5000BCF1480F05D14FF0010C0CFA00FCC2F8B4
:100A600010C0401C0828D1D31460B1F800C0BCF1FC
:100A7000FF0F34DD546800202EE000F1080C4FF029
:100A8000010808FA0CF3B1F800C00CEA03069E4214
:100A900021D183004FF00F0C0CFA03F7BC4305FA89
:100AA00003FC4CEA040491F803C0BCF1280F05D103
:100AB00000F1080C08FA0CF8C2F8148091F803C091
:100AC000BCF1480F07D100F1080C4FF0010808FAFB
:100AD0000CF8C2F81080401C0828CED35460BDE842
:100AE000F08100BFFEE7000001464906084A92690E
:100AF00042F00102064B9A61064A526822F0E06217
:100B0000044B5A601A4652680A435A607047000004
:100B1000001002400000014010B500F003F800F0A2
:100B200084F810BD10B501240DE000231A461946C3
:100B3000204600F0B9F900231A461946204600F075
:100B400021FC601CC4B2062CEFDD10BD10B50022E4
:100B50004821602000F04EF810BD10B5402211462B
:100B6000104600F047F810BD10B560220021104675
:100B700000F040F810BD10B530221146104600F0CC
:100B800039F810BD10B50C480078052805DA0022A8
:100B90001146602000F02EF801E0FFF7BDFF064887
:100BA0000078401C04490870084600780A2801DBD8
:100BB0000020087010BD00004100002010B50C4856
:100BC0000078042805DA20220021084600F012F8F7
:100BD00001E0FFF7A1FF06480078401C04490870B7
:100BE00008460078142801DB0020087010BD0000C2
:100BF000400000202DE9F04105460E46174601242D
:100C00000DE03B4632462946204600F04DF93B4672
:100C100032462946204600F0B5FB601CC4B2062CC3
:100C2000EFDD00F002F8BDE8F08110B5062000F01D
:100C3000D1F8062000F03CFB10BD10B50022602169
:100C40001046FFF7D7FF10BD10B5602200210846FF
:100C5000FFF7D0FF10BD10B5002211466020FFF74E
:100C6000C9FF10BD10B5002230216020FFF7C2FF80
:100C700010BD000001202949086000BF00BF00BF6F
:100C800000BF00BF00BF00BF00BF00BF00BF00BF6C
:100C900000BF00BF00BF00BF00BF00BF00BF00BF5C
:100CA00000BF00201E49C1F8B40100BF00BF00BF53
:100CB00000BF00BF00BF00BF00BF00BF00BF00BF3C
:100CC00000BF00BF00BF00BF00BF00BF00BF00BF2C
:100CD00000BF00BF00BF00BF00BF00BF00BF00BF1C
:100CE00000BF00BF00BF00BF00BF00BF00BF00BF0C
:100CF00000BF00BF00BF00BF00BF00BF00BF00BFFC
:100D000000BF00BF00BF00BF00BF00BF00BF00BFEB
:100D100000BF00BF00BF00BF70470000B401224207
:100D20000000224201202949086000BF00BF00BF27
:100D300000BF00BF00BF00BF00BF00BF00BF00BFBB
:100D400000BF00BF00BF00BF00BF00BF00BF00BFAB
:100D500000BF00BF00BF00BF00BF00BF00BF00BF9B
:100D600000BF00BF00BF00BF00BF00BF00BF00BF8B
:100D700000BF00BF00BF00BF00BF00BF00BF00BF7B
:100D800000BF00BF00BF00BF00BF00BF00BF00BF6B
:100D900000BF00BF00BF00BF00200D49C1F8B40173
:100DA00000BF00BF00BF00BF00BF00BF00BF00BF4B
:100DB00000BF00BF00BF00BF00BF00BF00BF00BF3B
:100DC00000BF00BF00BF00BF70470000B401224257
:100DD0000000224270B50546002451E02C48005D19
:100DE00000F0800010B9FFF745FF01E0FFF79AFF20
:100DF0002748005D00F0400010B9FFF73BFF01E01D
:100E0000FFF790FF2248005D00F0200010B9FFF7C7
:100E100031FF01E0FFF786FF1D48005D00F0100084
:100E200010B9FFF727FF01E0FFF77CFF1848005DCE
:100E300000F0080010B9FFF71DFF01E0FFF772FF97
:100E40001348005D00F0040010B9FFF713FF01E044
:100E5000FFF768FF0E48005D00F0020010B9FFF7D1
:100E600009FF01E0FFF75EFF0948005D00F00100A7
:100E700010B9FFF7FFFE01E0FFF754FF601CC4B29A
:100E800005EB4500A042A9DC00F004F870BD0000AD
:100E90006400002010B5002002490860422001F0E3
:100EA00030F910BDB401224230B5441E04EB4404B5
:100EB000064D2A55441E04EB4404641C2955441E67
:100EC00004EB4404A41C2B5530BD0000640000203A
:100ED00000B5002015490861C86014204861002051
:100EE0008861C8610846006840F001000860084653
:100EF00040680F4908400D494860084600680D49A0
:100F000008400A4908600846006820F4802008600C
:100F10000846406820F4FE004860002088600021F8
:100F20004FF0006000F01CF800BD0000001002400F
:100F30000000FFF8FFFFF6FE0146072323EA010247
:100F40001202054B18684FF6FF031840034B184375
:100F50001043014B186070470CED00E00000FA05EB
:100F6000024A0A400243024B1A60704780FFFF1F8B
:100F700008ED00E000BFFEE77047000070B50021FB
:100F800000230F22C47804B3154C246804F4E064F1
:100F9000C4F5E064210AC1F10403CA40447804FAAC
:100FA00003F184781440214309010E4C0678A155C1
:100FB000047804F01F050124AC4005786D11AD00E4
:100FC00005F1E025C5F8004109E0047804F01F05AB
:100FD0000124AC40044D0678761145F8264070BDDA
:100FE0000CED00E000E400E080E100E0014608B222
:100FF0007047014608B270477047000070B501465F
:10100000002901DA484200E0084605464FF42F6007
:1010100068433226704300EB8003074A02EBD27626
:1010200003EB660696FBF2F634B2002902DA604260
:1010300000B270BD2046FCE7982C130029B1064A87
:10104000D2690243044BDA6104E0034AD269824365
:10105000014BDA61704700000010024029B1064AD6
:1010600092690243044B9A6104E0034A9269824305
:10107000014B9A61704700000010024030B500211A
:101080000022002400232D4D6D6805F00C0121B1D4
:10109000042905D0082923D105E0294D056022E067
:1010A000274D05601FE0254D6D6805F47012234D36
:1010B0006D6805F48034022505EB92421CB9214D80
:1010C000554305600BE01D4D6D6805F400351DB1FD
:1010D0001C4D5543056002E0194D5543056002E083
:1010E000174D056000BF00BF144D6D6805F0F0019D
:1010F0000909154D6B5C0568DD4045600F4D6D6855
:1011000005F4E061090A104D6B5C4568DD408560BF
:101110000A4D6D6805F46051C90A0B4D6B5C45685A
:10112000DD40C560054D6D6805F44041890B074DF4
:101130006B5CC568B5FBF3F5056130BD001002407E
:1011400000127A0000093D00120000202200002059
:1011500001202949086000BF00BF00BF00BF00BFD9
:1011600000BF00BF00BF00BF00BF00BF00BF00BF87
:1011700000BF00BF00BF00BF00BF00BF00BF002016
:101180001E49C1F8B80100BF00BF00BF00BF00BFCB
:1011900000BF00BF00BF00BF00BF00BF00BF00BF57
:1011A00000BF00BF00BF00BF00BF00BF00BF00BF47
:1011B00000BF00BF00BF00BF00BF00BF00BF00BF37
:1011C00000BF00BF00BF00BF00BF00BF00BF00BF27
:1011D00000BF00BF00BF00BF00BF00BF00BF00BF17
:1011E00000BF00BF00BF00BF00BF00BF00BF00BF07
:1011F00000BF00BF70470000B80122420000224239
:1012000001202949086000BF00BF00BF00BF00BF28
:1012100000BF00BF00BF00BF00BF00BF00BF00BFD6
:1012200000BF00BF00BF00BF00BF00BF00BF00BFC6
:1012300000BF00BF00BF00BF00BF00BF00BF00BFB6
:1012400000BF00BF00BF00BF00BF00BF00BF00BFA6
:1012500000BF00BF00BF00BF00BF00BF00BF00BF96
:1012600000BF00BF00BF00BF00BF00BF00BF00BF86
:1012700000BF00BF00200D49C1F8B80100BF00BF8A
:1012800000BF00BF00BF00BF00BF00BF00BF00BF66
:1012900000BF00BF00BF00BF00BF00BF00BF00BF56
:1012A00000BF00BF70470000B80122420000224288
:1012B00070B50546002451E02C48005D00F0800028
:1012C00010B9FFF745FF01E0FFF79AFF2748005DDF
:1012D00000F0400010B9FFF73BFF01E0FFF790FF7F
:1012E0002248005D00F0200010B9FFF731FF01E057
:1012F000FFF786FF1D48005D00F0100010B9FFF7F2
:1013000027FF01E0FFF77CFF1848005D00F00800B0
:1013100010B9FFF71DFF01E0FFF772FF1348005DF2
:1013200000F0040010B9FFF713FF01E0FFF768FFBA
:101330000E48005D00F0020010B9FFF709FF01E060
:10134000FFF75EFF0948005D00F0010010B9FFF7EC
:10135000FFFE01E0FFF754FF601CC4B205EB45003F
:10136000A042A9DC00F004F870BD00007C00002061
:1013700010B5002002490860422000F0C2FE10BDF6
:10138000B801224230B5441E04EB4404064D2A55F0
:10139000441E04EB4404641C2955441E04EB44041D
:1013A000A41C2B5530BD00007C00002070B5044605
:1013B000022C09D1400700F02EFB05B20021600786
:1013C00000F04BFC284670BD032C09D1054800F005
:1013D00022FB05B20021034800F03FFC2846F2E75B
:1013E0000020F0E70004004010B50C480078002809
:1013F00007DDFFF7B9FB09480078401E0749087070
:101400000AE007480078002806DDFFF79FFB044844
:101410000078401E0249087010BD000062000020E4
:101420006100002010B51248007800B110BD002204
:101430001146104800F0EAF8002211460E4800F06C
:10144000E5F800200D4908800D4908800D49088005
:101450000D4908700D4908700D4908700D49087054
:10146000012003490870FFF7A3FA00BFDEE7000080
:101470005E0000204800002050000020580000209E
:101480005A0000205C0000205F0000206000002067
:10149000610000206200002010B5002211460A48B9
:1014A00000F0B4F800221146084800F0AFF8002020
:1014B0000749088007490880074908700120074943
:1014C0000870FFF753F910BD4800002050000020BD
:1014D000580000205A0000205F000020600000201B
:1014E00010B51548008828B91448008810B9FFF7CE
:1014F00042FB1FE01048B0F900001049B1F900109C
:10150000884202DAFFF7A0FB14E00B48B0F90000B4
:101510000A49B1F90010884202DDFFF7A3FB09E098
:101520000548B0F90000002802DDFFF786FB01E066
:10153000FFF791FB10BD0000580000205A0000206A
:1015400070470000024609B90020704742B10029E7
:1015500003DD0848B0F90000F7E741F26800F4E75E
:10156000002903DD0448B0F90000EEE741F268000D
:10157000EBE70000440000204600002070B5044660
:101580002046FEF7B1FF04462CB900200B49086045
:101590000B49088011E0002C05DD00200749086098
:1015A00007490C8009E0604285B2012003490860C8
:1015B00041F61F40401B0249088070BDB88121429E
:1015C0003808004070B504462046FEF78DFF0446FB
:1015D0002CB900200B4908600B49088011E0002C51
:1015E00005DD00200749086007490C8009E06042DA
:1015F00085B201200349086041F61F40401B0249A3
:10160000088070BDB48121423408004070B50446A2
:101610000D4616460020606005FB06F000F00CFF4A
:10162000206070BD2DE9F05F04460D46174625B9D0
:10163000002020606060BDE8F09FE81B00F0FCFE29
:10164000064631461E4800F043FF82463046616838
:1016500001F03CF883461B4900F03AFF81465146B1
:1016600000F060FE80464146206800F05BFE20608E
:101670001549206800F0F8FF02D21348206006E008
:101680001249206800F0F0FE01D210482060002DC1
:1016900007DD0021206800F0E7FE02D20020206074
:1016A00008E0002D06DA0021206800F0DDFF01D2FD
:1016B000002020606660206800F0A2FE00B2BAE759
:1016C000CDCC4C3F0000E04000F8E04500F8E0C51C
:1016D00030B504460025FFF7FBFB1F48006840F4C7
:1016E00080301D49086000BF1B480068400C00287E
:1016F000FAD04FF4806018494860A01EC4B2084672
:10170000406840EA844048600846406840F48030C1
:1017100048601248006840F03200104908600E48E6
:10172000006840F080700C49086000BF0A480068FB
:10173000400E0028FAD00848406840F002000649F0
:10174000486005E004484068C0F3870505F00305DC
:10175000022DF7D130BD00000010024000200240F1
:1017600070470000F0B50C46154600220021068C9B
:101770004FF6FE773E400684028B018C4FF60C76C6
:1017800032407E1C06EA03162E433243104EB0420E
:101790000ED0104EB0420BD0B0F1804F08D00E4E9C
:1017A000B04205D00D4EB04202D00D4EB04206D12F
:1017B0004FF6FD76314044F00106314305E04FF627
:1017C000F576314044F00106314302830184F0BDD7
:1017D000002C01400034014000040040000800409B
:1017E000000C0040F0B50C461546002200210026F2
:1017F000078C4FF6EF7C07EA0C070784028B018CFD
:101800004FF6FF7707EA041640F6FF473A404FF6D7
:10181000FF7707EA03373A434FF6FF7707EA0527D2
:101820003A43114FB8420ED0104FB8420BD0B0F12E
:10183000804F08D00E4FB84205D00E4FB84202D0AC
:101840000D4FB84206D14FF6DF77394046F010070A
:10185000394305E04FF65F77394044F010073943CC
:1018600002830184F0BD0000002C014000340140DF
:101870000004004000080040000C0040F0B50C4699
:101880001546002200210026078C4FF6FF6C07EA60
:101890000C070784828B018C4FF6FF7707EA04263A
:1018A0004FF60C773A404FF6FF7707EA03172F43BE
:1018B0003A43114FB8420ED0104FB8420BD0B0F19E
:1018C000804F08D00E4FB84205D00E4FB84202D01C
:1018D0000D4FB84206D14FF6FF57394046F4807796
:1018E000394305E04FF2FF57394044F480773943DC
:1018F00082830184F0BD0000002C014000340140CF
:101900000004004000080040000C0040F0B50C4608
:101910001546002200210026078C4EF6FF7C07EAC0
:101920000C070784828B018C4FF6FF7707EA043699
:1019300040F6FF473A404FF6FF7707EA05273A435C
:101940004FF6FF7707EA03373A43114FB8420ED0FC
:10195000104FB8420BD0B0F1804F08D00E4FB842B4
:1019600005D00E4FB84202D00D4FB84206D14DF609
:10197000FF77394046F48057394305E047F6FF5773
:10198000394044F48057394382830184F0BD00001C
:10199000002C0140003401400004004000080040D9
:1019A000000C004021B1028842F08002028004E075
:1019B00002884FF67F731A400280704721B1028877
:1019C00042F00102028004E002884FF6FE731A40E2
:1019D00002807047F0B50C4615461E4600210022D5
:1019E00000230189028B038C4FF6F877394021439D
:1019F0004FF6FC473A4040F201173A434FF6DD7785
:101A00003B404FF6FF7707EA06172F433B43018120
:101A100002830384F0BD0146888C704770B505468B
:101A20000C46244885420ED0234885420BD0B5F1A0
:101A3000804F08D02148854205D02148854202D0F8
:101A40002048854200D100E000BF208850B923899A
:101A5000A28861882846FFF785FEE188284600F0C5
:101A6000FEF825E0208804280AD12389A28861880D
:101A70002846FFF7B7FEE188284600F0F9F817E09E
:101A8000208808280AD12389A28861882846FFF780
:101A9000F5FEE188284600F0F8F809E02389A288DD
:101AA00061882846FFF732FFE188284600F0F6F803
:101AB00070BD0000002C01400034014000040040D3
:101AC00000080040000C00400021018041800121FD
:101AD00081800021C18001817047000070B5002421
:101AE00000220023058C4FF6FE7635400584028CDB
:101AF0008388048B4FF68F752C40B51E2C400D88C3
:101B00002C43751E2A400D892A434D882A43144DC3
:101B1000A8420BD0134DA84208D0134DA84205D0BF
:101B2000124DA84202D0124DA84213D14FF6F775BC
:101B30002A404D892A434FF6FB752A408D882A4357
:101B40004FF6FF652B404FF6FF552B408D892B43F9
:101B5000CD892B4383800483CD888586028470BD24
:101B6000002C01400034014000400140004401408D
:101B7000004801400A460021018B4FF6F7731940D7
:101B8000114301837047000070B500240022002338
:101B9000058C4FF6EF7635400584028C8388048BE4
:101BA00048F6FF752C404FF6FF452C400D884FF648
:101BB000FF7606EA05252C434FF6DF752A400D898E
:101BC00006EA05152A434D8806EA05152A43154DF0
:101BD000A84202D0144DA8421DD14FF67F752A406D
:101BE0004D894FF6FF7606EA05152A434FF6BF7575
:101BF0002A408D8806EA05152A434FF6FF352B400B
:101C00004FF2FF752B408D8906EA85052B43CD8960
:101C100006EA85052B4383800483CD8805870284EB
:101C200070BD0000002C0140003401400A46002134
:101C3000018B4FF2FF7319404FF6FF7303EA022343
:101C40001943018370470021018041808180C18058
:101C5000018141818181C181704781847047028BFC
:101C60004FF6F3731A400283028B0A4302837047D4
:101C7000028B4FF2FF331A400283028B4FF6FF7341
:101C800003EA01231A4302837047828B4FF6F373F2
:101C90001A408283828B0A4382837047828B4FF281
:101CA000FF331A408283828B4FF6FF7303EA0123CE
:101CB0001A43828370470000002202881D4B98421D
:101CC0000ED01D4B98420BD0B0F1804F08D01B4B6B
:101CD000984205D01A4B984202D01A4B984204D130
:101CE0004FF68F731A404B881A43174B984207D010
:101CF000164B984204D04FF6FF431A40CB881A4344
:101D000002808B8883850B8803850A4B98420BD011
:101D1000094B984208D00E4B984205D00D4B984283
:101D200002D00D4B984201D10B7A038601238382A6
:101D300070470000002C01400034014000040040C6
:101D400000080040000C004000100040001400405B
:101D50000040014000440140004801404FF6FF713F
:101D6000818000210180C1804180017270470000A4
:101D700010B5FC2805D1294B18700123284C23707D
:101D800010BD274B1B7803B9FAE7244B244C247869
:101D90001855234B1B785B1C214C237023461B7862
:101DA000062B00DAECE700231D4C23701B4B5B79FC
:101DB000FD2B0FD1194B5B78012B0BDC174BDB781C
:101DC000012B07DC154B9B78FA2B03DC134B1B799B
:101DD000FA2B06DD134B1B7843F00403114C2370E0
:101DE000CEE70E4B99781A795B78012B01D14B42E3
:101DF00019B20A4BDB78012B01D153421AB20A4BBC
:101E000019800A4B1A800123094C2370054B1B785B
:101E100043F00203034C237000BFB1E7040000202D
:101E20000A000020110000200C0000200E000020FD
:101E30001000002010B5002240F22551074800F0A4
:101E400095F807480478002005490870012240F2FF
:101E50002551024800F08AF8204610BD00380140A4
:101E60001100002010B504460CB9002010BD00225E
:101E700040F22551104800F079F81048007838B940
:101E8000012240F225510C4800F070F80020EDE7E7
:101E90000B48B0F9000020800A48B0F900006080CB
:101EA000002006490870012240F22551024800F046
:101EB0005DF80120DAE70000003801401000002042
:101EC0000C0000200E00002010B540F225510A48F9
:101ED00000F022F800B910BD074800F0D9F8C4B2EC
:101EE0000648007840F00100044908702046FFF7DA
:101EF0003FFF00BFEFE70000003801401100002065
:101F000021B1828942F40052828104E082894DF637
:101F1000FF731A408281704770B502460024002387
:101F20000025002040F66A16B14200D100BFC1F37F
:101F3000421501F01F03012606FA03F3012D02D119
:101F40009689334006E0022D02D1168A334001E023
:101F5000968A33400C12012606FA04F4168834409F
:101F600013B10CB1012000E0002070BDF0B50346B4
:101F7000002400260025002040F66A17B94200D14F
:101F800000BF1846C1F3421401F01F06012707FAEB
:101F900006F5012C01D10C3004E0022C01D11030E7
:101FA00000E014301AB107682F43076002E00768A9
:101FB000AF430760F0BD00002DE9F04786B005464D
:101FC0000E460024A24600BFA1460027B08900B1FA
:101FD00000BF2F462C8A4CF6FF700440F088044363
:101FE0002C82AC894EF6F3100440B0883189084346
:101FF000718908430443AC81AC8A4FF6FF4004402A
:10200000B0890443AC8201A8FFF738F81F48874223
:1020100002D1DDF810A001E0DDF80CA0A88900F4E1
:10202000004040B10AEBCA0000EB0A1031684900D9
:10203000B0FBF1F807E00AEBCA0000EB0A103168C8
:102040008900B0FBF1F86420B8FBF0F0040120092E
:10205000642101FB1089A88900F4004040B13220BE
:1020600000EBC900B0FBF1F000F00700044308E00A
:10207000322000EB09106421B0FBF1F000F00F00FA
:1020800004432C8106B0BDE8F08700000038014011
:1020900001468888C0F3080070474FF4165101606C
:1020A00000218180C18001810C2141810021818139
:1020B000704700BFFEE7704708B501211020FEF70A
:1020C000CDFF4FF4C040ADF8000010208DF80300A4
:1020D00003208DF8020069460148FEF777FC08BD31
:1020E0000010014007E041F64B4100BF0A1EA1F17C
:1020F000010399B2FAD1021EA0F1010398B2F2D104
:10210000704706E0082100BF0A1EA1F1010399B241
:10211000FAD1021EA0F1010398B2F3D1704700007A
:1021200000BF054A128802F04002002AF9D0C2B26C
:10213000014B1B1D1A8070470038014008B509206B
:10214000FFF7C6FA0220FEF7F7FE4FF4E13000F089
:1021500089F80220FEF7C8FC0120FEF7C5FCFEF757
:102160000BFBFFF7A9FFFEF701FBFEF7D5FC27A04D
:10217000FEF756F8FEF7F1FC4FF49670FFF7B2FF4A
:10218000FEF75BFD4FF49670FFF7ACFFFEF763FDC3
:102190004FF49670FFF7A6FFFEF756FD4FF49670CA
:1021A000FFF7A0FFFEF75EFD4FF49670FFF79AFF72
:1021B000FEF7DCFA28E06846FFF754FE0546FFF715
:1021C00039FE04466DB1BDF90210BDF90000FEF7FD
:1021D0005FFABDF90220BDF9001016A0FEF720F845
:1021E0000DE004F0040028B1FEF714FA17A0FEF782
:1021F00017F804E004F0010008B1FEF73BFAFEF71F
:1022000087F93220FFF76EFFD5E7000052454D4FAA
:1022100054452C52454144592C5553415254312C6C
:10222000504131302C3131353230302C46432D463F
:10223000440D0A0052454D4F54452C434D442C4CFF
:102240003D25642C523D25640D0A000052454D4F3A
:1022500054452C494E56414C49445F4652414D45E8
:102260000D0A000010B586B00446012144F20400B6
:10227000FEF7F4FE4FF40070ADF8140003208DF863
:10228000160018208DF8170005A92148FEF79EFBBF
:102290004FF48060ADF8140004208DF8170005A9F4
:1022A0001B48FEF793FB25208DF8000003208DF8D6
:1022B00001008DF8020001208DF803006846FEF74A
:1022C0005DFE01A8FFF7E9FE01940020ADF80800CB
:1022D000ADF80A00ADF80C00ADF810000C20ADF818
:1022E0000E0001A90B48FFF767FE00200A4908709D
:1022F0000A4908700A490870012240F22551054830
:10230000FFF734FE01210348FFF7FAFD06B010BDC8
:1023100000080140003801400A00002010000020A1
:102320001100002090EA010F48BF81F0004100F148
:10233000D481421A3CBF801A89184FEAD0524FF01C
:102340007F4C1CEA410FA2EBD15318BF9CEA026FED
:1023500000F03B804FF0004C4CEA00204CEA012199
:1023600021FA03FC10EB0C0C1ED202F1FF325FEAE3
:102370001C2040EBC25038BF70471CF07F0F4FEA63
:10238000400C18BFBCF17F4F38BF7047C3F120032A
:10239000994008BF20F00100BCF17F4F38BF704763
:1023A000A0F1C04000F05BB94FEA3C00000A40EBEE
:1023B000C25028BF1CF0FF0F4FEA400CE6D018BFF8
:1023C000BCF17F4F38BF7047EAE79CEA026F05D047
:1023D00010EA5C0F08BF00F00040704710B500F035
:1023E000F8F800BF64FBBE3E401058BFC0F140404B
:1023F000491058BFC1F140418142EFF3008070475E
:1024000041000B0ED3F19E0208D950F400034FEAAD
:10241000032323FA02F048BF4042704710B500F092
:10242000D8F800BF49922480002070476FF0004226
:1024300082EA20007047000010F0004148BF40428F
:10244000B0FA80F310FA03F2C3F19D030BD051EA06
:10245000C35101EB1220530638BF704700F1010051
:1024600008BF20F00100704750EA010C00F1138012
:102470001CF5000F58BFBCF5000F01D4884270470F
:1024800007D710F5000F58BF11F5000F15D488427B
:102490007047894270471CF5000F04D5BCF5000F4A
:1024A000F7D5814270474FF0807C1CEB400F38BF5E
:1024B0001CEB410F01D28142704710B500F089F842
:1024C000922449004FF000504FF08051FFF78CBF2D
:1024D0004FF47F0C1CEAD0121EBF1CEAD11392EA03
:1024E0000C0F93EA0C0F00F0478090EA010F48BFF1
:1024F00042F480724FF0004C4CEA00204CEA01217B
:1025000002EB0302A0FB0113A2F50002002918BF91
:1025100043F001035B0028BF4FEA330342EB224242
:102520005FEA132C4CEBC2502EBFBCEB436FB2F5ED
:102530007C0F70474FEA036CBCF1004F08BF20F0DE
:102540000100B2F57C0F38BF70470BD582F0FF0257
:1025500012F5803FC8BF704700F1C040D8BF00F0FF
:102560000040704700F5000C5FEA4C0C48BF704714
:10257000B0F1C04000F073B890EA010F0CEAD1133B
:1025800048BF42F48072624538BF634504D280EA96
:10259000010000F00040704710B500F01AF800BFCD
:1025A0008900013E00F007B800F009B85FEA410C6D
:1025B0005FEA1C6C08D080EA010000F050B85FEAC6
:1025C000400C5FEA1C6CF6D14FF00040A0F5800093
:1025D00070470EF1020E2EF0030E5EF8044B2442FB
:1025E00004D44FEA4102B2F17F4F11D84FEA4003C1
:1025F000B3F17F4F0CD80ED14FEAD07CB2F17F4FB0
:102600000CEB4C0C0CF1020C08BF4CEBD17C04E041
:102610004FF0080C01E04FEAD17C0CEB4C0324FA9C
:1026200003F404F00704B4F1040C06D20EEB840C9E
:10263000BDE810404CF0010C6047DFE80CF00708E3
:1026400002024FF00040A0F5800010BD0846420095
:1026500018BFD2F1807288BF00F0004010BDFF218A
:1026600041EAD050C005704751EA000C00F11380D8
:102670001CF5000F58BFBCF5000F01D48142704714
:1026800007D711F5000F58BF10F5000F15D4814280
:102690007047894270471CF5000F04D5BCF5000F48
:1026A000F7D5884270474FF0807C1CEB410F38BF54
:1026B0001CEB400F01D28842704780EA010081EA9A
:1026C000000180EA0100FFF7F8BE000090EA010F68
:1026D00048BF81F000413FF52CAE421A04D882F089
:1026E0000042A0EB020011444FEAD0524FF07F4C61
:1026F0001CEA410FA2EBD15318BF9CEA026F4AD0EB
:102700004FF0004C4CEA00204CEA012121FA03FC76
:10271000B0EB0C0C0FD412F0FE0F36D05FEA4C0079
:102720001DD5001240EBC25038BF70471CF03F0F60
:1027300018BF70470BE0A2F101025FEA1C2040EBDA
:10274000C25038BF70471CF07F0F18BF7047C3F1ED
:102750002003994014BF401E20F0010070478008FC
:102760004FEA122308BF7047B0FA80FCA2EB0C02BC
:10277000CCF1280C60FA0CF093EA122F04BF00EBA6
:10278000C25070474FEAC3707047130A5FEADC100B
:1027900008BF7047F6E79CEA026F04D010EA5C0FAE
:1027A00008BF0020704710B5FFF713FF40DFF63E6B
:1027B00081F0004070470000D8270008000000208A
:1027C000640000006C0100083C2800086400002040
:1027D00094020000880100080000000000000000D2
:1027E00000000000000000000000000000000102E6
:1027F0000304010203040607080902040608010194
:1028000000000000000000000A00000000000000BE
:102810000300E1AC0000500000000000B80BE40C25
:1028200000000000000000000000000000000000A8
:0C2830000000000000000000000000009C
:04000005080001D717
:00000001FF
