:020000040800F2
:1000000000040020D70100080D0A00082D06000892
:10001000090A0008E9030008CF11000800000000E9
:10002000000000000000000000000000410E000879
:100030001505000800000000810A0008D50E000820
:10004000F7010008F7010008F7010008F7010008B0
:10005000F7010008F7010008F7010008F7010008A0
:10006000F7010008F7010008F7010008F701000890
:10007000F7010008F7010008F7010008F701000880
:10008000F7010008F7010008F7010008F701000870
:10009000F7010008F7010008F7010008F701000860
:1000A000F7010008F7010008F7010008F701000850
:1000B000F7010008F7010008F7010008F701000840
:1000C000F7010008F7010008F7010008F701000830
:1000D000F7010008010F0008F7010008F701000808
:1000E000F7010008F7010008F7010008F701000810
:1000F000F7010008F7010008F7010008F701000800
:10010000F7010008F7010008F7010008F7010008EF
:10011000F7010008F7010008F7010008F7010008DF
:10012000F7010008F7010008F7010008F7010008CF
:1001300000F002F800F03FF80AA090E8000C8244BA
:100140008344AAF10107DA4501D100F034F8AFF297
:10015000090EBAE80F0013F0010F18BFFB1A43F0A5
:1001600001031847D0130000F0130000103A24BF19
:1001700078C878C1FAD8520724BF30C830C144BF0C
:1001800004680C607047000000230024002500264E
:10019000103A28BF78C1FBD8520728BF30C148BFEA
:1001A0000B607047632900F0B280002070471FB5D4
:1001B0001FBD10B510BD00F0E5F81146FFF7F7FFC1
:1001C00001F04CF800F003F903B4FFF7F2FF03BCB1
:1001D00000F0FFFF70470B4880470B4981F3088808
:1001E0000A480047FEE7FEE7FEE7FEE7FEE7FEE718
:1001F000FEE7FEE7FEE7FEE705480649044A064B30
:1002000070470000D501000880030020310100087C
:100210008001002080030020800100207047000042
:100220000FB4044910B503AA029800F07DF810BC81
:100230005DF814FB040000202DE9F0410E46044651
:10024000002020622046E168884730B3252805D089
:10025000D4E901219047206A401CF2E7E16820467A
:1002600000278847050018D0A5F14100192802D8B9
:1002700020354FF400673246294620462760FFF7B5
:1002800091FF40B1012804D0F61D26F0070608367C
:10029000D8E7361DD6E72846DAE7206ABDE8F081C0
:1002A00070B50C460546012A05D02878800600D591
:1002B000EA69002302E0012305E05B1C934202D2BD
:1002C000E05C0028F9D1A869E618C01AA861286A7C
:1002D000184428622846AFF3008004E0D5E90121E4
:1002E00014F8010B9047B442F8D32846AFF30080CE
:1002F00070BD704770477047704710B5436913B1C0
:10030000AFF3008001E0FFF7CBFF012010BD1278B2
:1003100000F124010A7000224A700122EDE7116801
:100320004FF0FF32E9E70000074B70B50D467B4404
:1003300000F011F80446284600F020F810B14FF004
:10034000FF3070BD204670BD0F0F000001694A1CD0
:1003500002610878704700B58FB0CDE90131002106
:10036000059105497944CDE9031011466846FFF728
:1003700063FF0FB000BD0000E5FFFFFF007B00F052
:1003800080007047754600F02BF8AE4605006946C0
:10039000534620F00700854618B020B5FFF72CFF24
:1003A000BDE820404FF000064FF000074FF0000876
:1003B0004FF0000B21F00701AC46ACE8C009ACE8F7
:1003C000C009ACE8C009ACE8C0098D46704710B55B
:1003D0000446AFF300802046BDE81040FFF7F4BEAE
:1003E000004870471C01002000BFFEE710B5012443
:1003F0000DE000231A461946204600F069FA002352
:100400001A461946204600F0D1FC601CC4B2062CE6
:10041000EFDD16480078062809DA14490978491CE6
:10042000C8B2FF231A46194600F052FA09E00F49F4
:100430000978C1F10C01C8B2FF231A46194600F031
:10044000B5FC062000F0DAF9062000F045FC07486C
:100450000078401C05490870084600780C2801DB2C
:1004600000200870642000F0CDFE10BD20000020A8
:1004700070B5012533E0681E244909780844062137
:1004800090FBF1F201FB1200C4B204EB4400204ED9
:100490003044837804EB44003044427804EB440059
:1004A000315C284600F014FAC5F1060017490978B6
:1004B0000844062190FBF1F201FB1200C4B204EBE8
:1004C00044003044837804EB44003044427804EB29
:1004D0004400315C284600F069FC681CC5B2062D5A
:1004E000C9DD062000F08AF9062000F0F5FB074878
:1004F0000078401C0549087008460078062801DB92
:1005000000200870962000F07DFE70BD21000020C4
:100510002015000870472DE9F0410246002500260D
:10052000002000230024002791F803C00CF00F05E1
:1005300091F803C00CF0100CBCF1000F03D091F83F
:1005400002C04CEA050591F800C0BCF1000F31D0A3
:10055000146800202BE04FF0010C0CFA00F3B1F806
:1005600000C00CEA03069E4220D183004FF00F0C1E
:100570000CFA03F7BC4305FA03FC4CEA040491F8B7
:1005800003C0BCF1280F06D14FF0010C0CFA00FC9F
:10059000C2F814C00AE091F803C0BCF1480F05D1BD
:1005A0004FF0010C0CFA00FCC2F810C0401C0828E7
:1005B000D1D31460B1F800C0BCF1FF0F34DD546832
:1005C00000202EE000F1080C4FF0010808FA0CF3AF
:1005D000B1F800C00CEA03069E4221D183004FF01F
:1005E0000F0C0CFA03F7BC4305FA03FC4CEA0404B5
:1005F00091F803C0BCF1280F05D100F1080C08FAEE
:100600000CF8C2F8148091F803C0BCF1480F07D170
:1006100000F1080C4FF0010808FA0CF8C2F810803D
:10062000401C0828CED35460BDE8F08100BFFEE72F
:1006300001464906084A926942F00102064B9A6156
:10064000064A526822F0E062044B5A601A46526829
:100650000A435A6070470000001002400000014049
:1006600010B501240DE000231A461946204600F07B
:100670002FF900231A461946204600F097FB601C0C
:10068000C4B2062CEFDD062000F0B8F8062000F01A
:1006900023FB142000F0B6FD10BD00000120294905
:1006A000086000BF00BF00BF00BF00BF00BF00BFA9
:1006B00000BF00BF00BF00BF00BF00BF00BF00BF42
:1006C00000BF00BF00BF00BF00BF00201E49C1F82F
:1006D000B40100BF00BF00BF00BF00BF00BF00BF2C
:1006E00000BF00BF00BF00BF00BF00BF00BF00BF12
:1006F00000BF00BF00BF00BF00BF00BF00BF00BF02
:1007000000BF00BF00BF00BF00BF00BF00BF00BFF1
:1007100000BF00BF00BF00BF00BF00BF00BF00BFE1
:1007200000BF00BF00BF00BF00BF00BF00BF00BFD1
:1007300000BF00BF00BF00BF00BF00BF00BF00BFC1
:1007400070470000B40122420000224201202949E2
:10075000086000BF00BF00BF00BF00BF00BF00BFF8
:1007600000BF00BF00BF00BF00BF00BF00BF00BF91
:1007700000BF00BF00BF00BF00BF00BF00BF00BF81
:1007800000BF00BF00BF00BF00BF00BF00BF00BF71
:1007900000BF00BF00BF00BF00BF00BF00BF00BF61
:1007A00000BF00BF00BF00BF00BF00BF00BF00BF51
:1007B00000BF00BF00BF00BF00BF00BF00BF00BF41
:1007C00000200D49C1F8B40100BF00BF00BF00BF49
:1007D00000BF00BF00BF00BF00BF00BF00BF00BF21
:1007E00000BF00BF00BF00BF00BF00BF00BF00BF11
:1007F00070470000B40122420000224270B5054655
:10080000002451E02C48005D00F0800010B9FFF793
:1008100045FF01E0FFF79AFF2748005D00F0400028
:1008200010B9FFF73BFF01E0FFF790FF2248005DA2
:1008300000F0200010B9FFF731FF01E0FFF786FF5D
:100840001D48005D00F0100010B9FFF727FF01E020
:10085000FFF77CFF1848005D00F0080010B9FFF7B3
:100860001DFF01E0FFF772FF1348005D00F0040078
:1008700010B9FFF713FF01E0FFF768FF0E48005DB6
:1008800000F0020010B9FFF709FF01E0FFF75EFF7B
:100890000948005D00F0010010B9FFF7FFFE01E01C
:1008A000FFF754FF601CC4B205EB4500A042A9DC71
:1008B00000F004F870BD0000EC00002010B500202E
:1008C00002490860422000F0ACFC10BDB401224295
:1008D00030B5441E04EB4404064D2A55441E04EB77
:1008E0004404641C2955441E04EB4404A41C2B55E9
:1008F00030BD0000EC00002010B5012418E01848BD
:100900000078844206D1FF231A4619462046FFF795
:10091000DFFF05E000231A4619462046FFF7D8FFFF
:1009200000231A461946204600F040FA601CC4B263
:10093000062CE4DD0620FFF761FF062000F0CCF96D
:1009400007480078401C06490870084600780628C9
:1009500001DD01200870642000F054FC10BD00008F
:100960001E00002000B5002015490861C860142051
:10097000486100208861C8610846006840F00100B5
:100980000860084640680F4908400D49486008461D
:1009900000680D4908400A4908600846006820F4CC
:1009A000802008600846406820F4FE00486000206F
:1009B000886000214FF0006000F01CF800BD0000CE
:1009C000001002400000FFF8FFFFF6FE014607237B
:1009D00023EA01021202054B18684FF6FF03184084
:1009E000034B18431043014B186070470CED00E0B7
:1009F0000000FA05024A0A400243024B1A6070479F
:100A000080FFFF1F08ED00E000BFFEE77047000019
:100A100070B5002100230F22C47804B3154C24685C
:100A200004F4E064C4F5E064210AC1F10403CA409F
:100A3000447804FA03F184781440214309010E4CF0
:100A40000678A155047804F01F050124AC40057810
:100A50006D11AD0005F1E025C5F8004109E004780D
:100A600004F01F050124AC40044D0678761145F8CA
:100A7000264070BD0CED00E000E400E080E100E005
:100A80007047000029B1064A92690243044B9A61FB
:100A900004E0034A92698243014B9A617047000067
:100AA0000010024030B500210022002400232D4D0B
:100AB0006D6805F00C0121B1042905D0082923D166
:100AC00005E0294D056022E0274D05601FE0254D1A
:100AD0006D6805F47012234D6D6805F480340225AD
:100AE00005EB92421CB9214D554305600BE01D4DAD
:100AF0006D6805F400351DB11C4D5543056002E0DD
:100B0000194D5543056002E0174D056000BF00BF59
:100B1000144D6D6805F0F0010909154D6B5C056811
:100B2000DD4045600F4D6D6805F4E061090A104D28
:100B30006B5C4568DD4085600A4D6D6805F4605169
:100B4000C90A0B4D6B5C4568DD40C560054D6D689D
:100B500005F44041890B074D6B5CC568B5FBF3F5A7
:100B6000056130BD0010024000127A0000093D000E
:100B70000A0000201A00002001202949086000BF57
:100B800000BF00BF00BF00BF00BF00BF00BF00BF6D
:100B900000BF00BF00BF00BF00BF00BF00BF00BF5D
:100BA00000BF00BF00BF00201E49C1F8B80100BF50
:100BB00000BF00BF00BF00BF00BF00BF00BF00BF3D
:100BC00000BF00BF00BF00BF00BF00BF00BF00BF2D
:100BD00000BF00BF00BF00BF00BF00BF00BF00BF1D
:100BE00000BF00BF00BF00BF00BF00BF00BF00BF0D
:100BF00000BF00BF00BF00BF00BF00BF00BF00BFFD
:100C000000BF00BF00BF00BF00BF00BF00BF00BFEC
:100C100000BF00BF00BF00BF00BF00BF70470000A3
:100C2000B80122420000224201202949086000BF89
:100C300000BF00BF00BF00BF00BF00BF00BF00BFBC
:100C400000BF00BF00BF00BF00BF00BF00BF00BFAC
:100C500000BF00BF00BF00BF00BF00BF00BF00BF9C
:100C600000BF00BF00BF00BF00BF00BF00BF00BF8C
:100C700000BF00BF00BF00BF00BF00BF00BF00BF7C
:100C800000BF00BF00BF00BF00BF00BF00BF00BF6C
:100C900000BF00BF00BF00BF00BF00BF00200D4964
:100CA000C1F8B80100BF00BF00BF00BF00BF00BF58
:100CB00000BF00BF00BF00BF00BF00BF00BF00BF3C
:100CC00000BF00BF00BF00BF00BF00BF70470000F3
:100CD000B80122420000224270B50546002451E0CE
:100CE0002C48005D00F0800010B9FFF745FF01E0DF
:100CF000FFF79AFF2748005D00F0400010B9FFF7AA
:100D00003BFF01E0FFF790FF2248005D00F020006C
:100D100010B9FFF731FF01E0FFF786FF1D48005DC6
:100D200000F0100010B9FFF727FF01E0FFF77CFF8C
:100D30001848005D00F0080010B9FFF71DFF01E042
:100D4000FFF772FF1348005D00F0040010B9FFF7D1
:100D500013FF01E0FFF768FF0E48005D00F002009E
:100D600010B9FFF709FF01E0FFF75EFF0948005DDA
:100D700000F0010010B9FFF7FFFE01E0FFF754FF9C
:100D8000601CC4B205EB4500A042A9DC00F004F8E9
:100D900070BD00000401002010B500200249086069
:100DA000422000F03EFA10BDB801224230B5441E88
:100DB00004EB4404064D2A55441E04EB4404641C11
:100DC0002955441E04EB4404A41C2B5530BD0000DF
:100DD0000401002010B5012418E000231A4619462A
:100DE0002046FFF775FD15480078844206D1FF23A1
:100DF0001A4619462046FFF7D9FF05E000231A4698
:100E000019462046FFF7D2FF601CC4B2062CE4DD71
:100E10000620FFF7F3FC0620FFF75EFF0748007887
:100E2000401C0649087008460078062801DD0120AC
:100E30000870642000F0E6F910BD00001F000020DB
:100E40007047000030B504460025FFF78BFD1F48B2
:100E5000006840F480301D49086000BF1B480068EE
:100E6000400C0028FAD04FF4806018494860A01E5A
:100E7000C4B20846406840EA84404860084640687A
:100E800040F4803048601248006840F03200104959
:100E900008600E48006840F080700C49086000BF90
:100EA0000A480068400E0028FAD00848406840F020
:100EB00002000649486005E004484068C0F3870521
:100EC00005F00305022DF7D130BD000000100240EF
:100ED0000020024070470000014611B1064800782A
:100EE00008B9002070470548007808700020024AC1
:100EF00010700120F6E70000080000202400002008
:100F000010B540F22551094800F0A0F860B107483B
:100F100000F058F9C4B20D2C06D00A2C04D00448B5
:100F2000047001200349087010BD00000038014022
:100F3000240000200800002021B1828942F40052E0
:100F4000828104E082894DF6FF731A4082817047E6
:100F500008B56846FFF7C0FF00B908BD9DF800005E
:100F60003038052827D2DFE800F0030A11181F00E7
:100F700000201549087015A0FFF752F921E0012063
:100F80001149087014A0FFF74BF91AE002200E492E
:100F9000087017A0FFF744F913E003200A4908700E
:100FA00019A0FFF73DF90CE00420074908701AA0CA
:100FB000FFF736F905E09DF800101CA0FFF730F9A7
:100FC00000BF00BF00BFC8E7000000204D4F4445F0
:100FD0003A204F46460D0A004D4F44453A204C45B5
:100FE00046542052554E4E494E470D0A000000000F
:100FF0004D4F44453A2052494748542052554E4E91
:10100000494E470D0A0000004D4F44453A204349E0
:1010100052434C450D0A00004D4F44453A20434F82
:101020004C4F5246554C0D0A000000004552524F9D
:10103000523A20554E4B4E4F574E20434F4D4D4147
:101040004E4420272563270D0A00000070B5024694
:10105000002400230025002040F66A16B14200D18A
:1010600000BFC1F3421501F01F03012606FA03F386
:10107000012D02D19689334006E0022D02D1168A55
:10108000334001E0968A33400C12012606FA04F43C
:101090001688344013B10CB1012000E0002070BD6F
:1010A000F0B50346002400260025002040F66A170C
:1010B000B94200D100BF1846C1F3421401F01F0627
:1010C000012707FA06F5012C01D10C3004E0022CAF
:1010D00001D1103000E014301AB107682F430760C7
:1010E00002E00768AF430760F0BD00002DE9F0475C
:1010F00086B005460E460024A24600BFA146002742
:10110000B08900B100BF2F462C8A4CF6FF70044016
:10111000F08804432C82AC894EF6F3100440B0886A
:1011200031890843718908430443AC81AC8A4FF686
:10113000FF400440B0890443AC8201A8FFF7B2FC31
:101140001F48874202D1DDF810A001E0DDF80CA0B5
:10115000A88900F4004040B10AEBCA0000EB0A1075
:1011600031684900B0FBF1F807E00AEBCA0000EB78
:101170000A1031688900B0FBF1F86420B8FBF0F088
:1011800004012009642101FB1089A88900F40040B2
:1011900040B1322000EBC900B0FBF1F000F00700D5
:1011A000044308E0322000EB09106421B0FBF1F0A9
:1011B00000F00F0004432C8106B0BDE8F08700006A
:1011C0000038014001468888C0F30800704700BF1E
:1011D000FEE7014600BF704708B501211020FFF768
:1011E00051FC4FF4C040ADF8000010208DF8030012
:1011F00003208DF8020069460148FFF78CF908BD0D
:101200000010014007E041F64B4100BF0A1EA1F16A
:10121000010399B2FAD1021EA0F1010398B2F2D1F2
:10122000704706E0082100BF0A1EA1F1010399B230
:10123000FAD1021EA0F1010398B2F3D17047000069
:1012400000BF054A128802F04002002AF9D0C2B25B
:10125000014B1B1D1A807047003801400920FFF721
:10126000F1FD0220FFF7B2FB4FF4E13000F008F986
:101270000220FFF7DDF90120FFF7DAF9FFF7ACFFF5
:101280001DA0FEF7CDFF29A0FEF7CAFF1AA0FEF7AA
:10129000C7FF32A0FEF7C4FF3CA0FEF7C1FF47A086
:1012A000FEF7BEFF51A0FEF7BBFF5CA0FEF7B8FF44
:1012B00011A0FEF7B5FF65A0FEF7B2FF1AE0FFF739
:1012C00047FE6E480078052813D2DFE800F00306D9
:1012D000090C0F00FFF7C4F90BE0FFF70DFB08E066
:1012E000FFF778FD05E0FFF781F802E0FFF7C0F8AF
:1012F00000BF00BFE3E700002B2D2D2D2D2D2D2D40
:101300002D2D2D2D2D2D2D2D2B2D2D2D2D2D2D2D0F
:101310002D2D2D2D2D2D2D2D2D2D2D2D2D2D2D2DFD
:101320002D2D2D2D2D2B0D0A000000007C20436F4C
:101330006D6D616E64202020202020207C204C4593
:1013400044204D6F64652020202020202020202074
:101350002020202020202020200D0A007C2030206A
:101360002020202020202020202020207C204C45D0
:10137000445F4D4F44455F4F4646202020202020AB
:101380002020202020202020200D0A007C20312039
:101390002020202020202020202020207C204C45A0
:1013A000445F4D4F44455F4C4546545F52554E4E49
:1013B000494E472020202020200D0A007C2032208A
:1013C0002020202020202020202020207C204C4570
:1013D000445F4D4F44455F52494748545F52554E14
:1013E0004E494E4720202020200D0A007C2033202B
:1013F0002020202020202020202020207C204C4540
:10140000445F4D4F44455F434952434C45202020A3
:101410002020202020202020200D0A007C203420A5
:101420002020202020202020202020207C204C450F
:10143000445F4D4F44455F434F4C4F5246554C20FF
:101440002020202020202020200D0A00506C6561E3
:10145000736520656E746572206120636F6D6D61C8
:101460006E642028312D342C206F722027302720E5
:10147000746F2071756974293A2000000000002003
:1014800010B586B00446012144F20400FFF7FAFAD1
:101490004FF40070ADF8140003208DF816001820EA
:1014A0008DF8170005A91C48FFF735F84FF4806048
:1014B000ADF8140004208DF8170005A91648FFF7B1
:1014C0002AF825208DF8000003208DF801008DF802
:1014D000020001208DF803006846FFF799FA019495
:1014E0000020ADF80800ADF80A00ADF80C00ADF82A
:1014F00010000C20ADF80E0001A90848FFF7F6FD1A
:10150000012240F225510548FFF7CAFD0121034899
:10151000FFF712FD06B010BD000801400038014081
:10152000FF0000FFFF0000FF0000FFFF0000FFFFC3
:1015300000FF0000541500080000002024000000F7
:101540006C01000878150008240000205C030000EE
:1015500088010008000000000000000000000000FA
:101560000000010203040102030406070809020443
:08157000060801010000000063
:04000005080001D717
:00000001FF
