:020000040800F2
:1000000000040020D7010008310F00088F09000804
:100010002D0F0008130500086320000800000000F1
:10002000000000000000000000000000C5150008EE
:100030001507000800000000B30F0008651800084D
:10004000F7010008F7010008F7010008F7010008B0
:10005000F7010008F7010008F7010008F7010008A0
:10006000F7010008F7010008F7010008F701000890
:10007000F7010008F7010008F7010008F701000880
:10008000F7010008F7010008F7010008F701000870
:10009000F7010008F7010008F7010008F701000860
:1000A000F7010008F7010008F7010008F701000850
:1000B000F7010008F7010008F7010008F701000840
:1000C000F7010008F7010008F7010008F701000830
:1000D000F7010008751E0008F7010008F701000885
:1000E000F7010008F7010008F7010008F701000810
:1000F000F7010008F7010008F7010008F701000800
:10010000F7010008F7010008F7010008F7010008EF
:10011000F7010008F7010008F7010008F7010008DF
:10012000F7010008F7010008F7010008F7010008CF
:1001300000F002F800F03FF80AA090E8000C8244BA
:100140008344AAF10107DA4501D100F034F8AFF297
:10015000090EBAE80F0013F0010F18BFFB1A43F0A5
:10016000010318475026000070260000103A24BFF3
:1001700078C878C1FAD8520724BF30C830C144BF0C
:1001800004680C607047000000230024002500264E
:10019000103A28BF78C1FBD8520728BF30C148BFEA
:1001A0000B607047752900F04780002070471FB52D
:1001B0001FBD10B510BD00F063F91146FFF7F7FF42
:1001C00001F09EFF00F081F903B4FFF7F2FF03BCDA
:1001D00001F053FF70470B4880470B4981F30888B3
:1001E0000A480047FEE7FEE7FEE7FEE7FEE7FEE718
:1001F000FEE7FEE7FEE7FEE705480649044A064B30
:1002000070470000D5010008B80200203101000845
:10021000B8000020B8020020B8000020704700009D
:100220000FB4044910B503AA029800F0FBF810BC03
:100230005DF814FB000000202DE9F0410646002483
:1002400010687529314616A510D0AFF3008000283C
:1002500002DA404213A507E031688A0701D512A5EA
:1002600002E0490704D511A5012401E0AFF30080A5
:1002700000210A2206F1240709E0B0FBF2FCB0FBE2
:10028000F2F302FB1C00303078541846491C002859
:10029000F3D123462A463046BDE8F04100F068B865
:1002A000000000002D0000002B00000020000000D6
:1002B0002DE9F0410F460546002028622846E968EE
:1002C000884770B3252805D0D5E901219047286AD1
:1002D000401CF2E7E9682846002688476C28044657
:1002E0000AD0682C08D04C2C35D06A2C31D0742C14
:1002F00031D07A2C2FD016E0E96806462846884788
:10030000B042044608D16C2E23D04FF480662846B4
:10031000E9688847044606E06C2E03D04FF48076E7
:1003200001E01EE04026E4B1A4F14100192802D802
:10033000203446F400663A46214628462E60FFF7F0
:1003400031FF60B1012808D0FF1D27F007070837EB
:10035000B4E78026DBE70026D9E73F1DAEE720465D
:10036000B2E7286ABDE8F081704770477047704770
:100370002DE9F0470D4699469246044600F12408BF
:100380000168880604D5E06921F01001216000E0D1
:100390000120A84201DD471B00E00027A1697A196E
:1003A00002EB0900081AA0612078C00602D420469A
:1003B000AFF30080002608E0D4E901211AF8060016
:1003C0009047206A401C761C20624E45F4DB207862
:1003D000C0060AD52046AFF3008006E0D4E901212B
:1003E00030209047206A401C2062381EA7F1010788
:1003F000F4DC07E0D4E9012118F805009047206AF1
:10040000401C2062281EA5F10105F3DC2046AFF355
:1004100000802078000602D50220BDE8F087012088
:10042000FBE70000074B70B50D467B4400F011F868
:100430000446284600F020F810B14FF0FF3070BDA0
:10044000204670BDB71C000001694A1C0261087893
:10045000704700B58FB0CDE9013100210591054904
:100460007944CDE9031011466846FFF721FF0FB02C
:1004700000BD0000E5FFFFFF007B00F0800070473B
:10048000754600F02BF8AE4605006946534620F04D
:100490000700854618B020B5FFF7AEFEBDE8204046
:1004A0004FF000064FF000074FF000084FF0000B30
:1004B00021F00701AC46ACE8C009ACE8C009ACE8E3
:1004C000C009ACE8C0098D46704710B50446AFF3CB
:1004D00000802046BDE81040FFF776BE0048704718
:1004E000580000202DE9F04107460D4614461E46EF
:1004F00032463846616801F0B6FD40B132462846C2
:10050000A16801F0B0FD10B10120BDE8F08100202C
:10051000FBE700BFFEE700002DE9FC5F05460E4645
:10052000144605B116B90020BDE8FC9F2088684339
:1005300007B2608870430FFA80F8D4E90101A0EB9C
:100540000109484601F060FF1249009001F0A8FF40
:100550008346A7EB080001F057FF0F49009001F018
:100560009FFF5946019001F0C5FE82460B49504657
:1005700002F062F802D2DFF824A006E008495046F3
:1005800001F05AFF01D2DFF818A0504601F020FF19
:1005900000B2C9E70AD7233CCDCC4C3E00000C4248
:1005A00000000CC210B5044641F61F4251422046DD
:1005B00000F001F810BD03468B4201DA084670478F
:1005C000934201DD1046FAE71846F8E72DE9FC41B1
:1005D00006460F4614461D46DDF8208004B115B9C5
:1005E0000020BDE8FC81012023462A463946CDE99A
:1005F0000008304600F012FFF3E72DE9FC41054604
:100600000E4617461C46002003463A463146CDE9C1
:100610000004284600F002FFBDE8FC8170B50546E5
:100620000C46284601F02AF8204601F04BF870BD30
:1006300010B500210846FFF7F1FF10BD00B589B0E5
:100640000121082000F0C6FC0121042000F0B2FCCA
:100650004FF4C040ADF8200010208DF82300032097
:100660008DF8220008A9294800F006F9C020ADF84D
:10067000200018208DF8230003208DF8220008A9FF
:10068000224800F0F9F805A801F0EAFB41F61F4006
:10069000ADF818000920ADF814000020ADF81A00DC
:1006A000ADF8160005A91A4801F088FB01A801F071
:1006B0004CFB6020ADF804000120ADF806000020DE
:1006C000ADF80A00ADF80C0001A9114801F088FA54
:1006D00001A90F4801F0DAFA08210D4801F0CCFA1F
:1006E00008210B4801F024FB0121094801F0DCF945
:1006F000FFF79EFF0121064801F0E2F900F02CF817
:1007000000F06CF800F0AAF809B000BD000C014040
:100710000008004070473EB50446684601F056FAAE
:100720000020ADF802000120ADF804000020ADF873
:1007300006000A20ADF808000020ADF80000694668
:10074000204601F0EDF90420ADF80000694620468E
:1007500001F0E6F93EBD00001FB50121084600F09A
:1007600029FC0121042000F035FC0320ADF8000035
:1007700004208DF8030003208DF802006946164816
:1007800000F07AF801A801F06BFB0020ADF804003E
:100790004FF6FF70ADF808000020ADF80A00ADF884
:1007A000060001A94FF0804001F008FB00231A4623
:1007B00003214FF0804001F08FF94FF08040FFF7A8
:1007C000AAFF00214FF0804001F0C9FA01218807FB
:1007D00001F076F91FBD0000000801401FB501219E
:1007E000022000F0E7FB0121042000F0F3FBC02011
:1007F000ADF8000004208DF8030003208DF80200FE
:100800006946144800F038F801A801F029FB0020DF
:10081000ADF804004FF6FF70ADF808000020ADF809
:100820000A00ADF8060001A90B4801F0C7FA002341
:100830001A460321084801F04FF90748FFF76BFFFC
:100840000021054801F08BFA0121034801F038F935
:100850001FBD0000000801400004004010B5002149
:100860004FF0804001F07BFA0021024801F077FA56
:1008700010BD0000000400402DE9F04102460025B3
:100880000026002000230024002791F803C00CF06C
:100890000F0591F803C00CF0100CBCF1000F03D051
:1008A00091F802C04CEA050591F800C0BCF1000FB8
:1008B00031D0146800202BE04FF0010C0CFA00F34B
:1008C000B1F800C00CEA03069E4220D183004FF02D
:1008D0000F0C0CFA03F7BC4305FA03FC4CEA0404C2
:1008E00091F803C0BCF1280F06D14FF0010C0CFAAF
:1008F00000FCC2F814C00AE091F803C0BCF1480F34
:1009000005D14FF0010C0CFA00FCC2F810C0401CDD
:100910000828D1D31460B1F800C0BCF1FF0F34DD5A
:10092000546800202EE000F1080C4FF0010808FA8E
:100930000CF3B1F800C00CEA03069E4221D18300FB
:100940004FF00F0C0CFA03F7BC4305FA03FC4CEA1A
:10095000040491F803C0BCF1280F05D100F1080C84
:1009600008FA0CF8C2F8148091F803C0BCF1480FE3
:1009700007D100F1080C4FF0010808FA0CF8C2F892
:100980001080401C0828CED35460BDE8F08100BF21
:10099000FEE7000001464906084A926942F001025A
:1009A000064B9A61064A526822F0E062044B5A6094
:1009B0001A4652680A435A6070470000001002400D
:1009C0000000014010B500F04BF800F027F910BD11
:1009D00070B500F045F8002411E01148007820447B
:1009E0000C2190FBF1F201FB1200C5B20D48035D32
:1009F00000221146284600F0F3F8601CC4B2052C12
:100A0000EBDB00F00BF90648007818B90B2004491D
:100A1000087004E002480078401E0149087070BD6B
:100A200027000020AF27000810B500F019F8FF23B9
:100A3000002211460948007800F0D2F800F0EEF8E4
:100A40000648007818B90B200449087004E00348F0
:100A50000078401E0149087010BD00001F000020F2
:100A600010B501240DE000231A461946204600F077
:100A7000F7F900231A461946204600F03FFC601C97
:100A8000C4B2062CEFDD10BD70B5002419E0154886
:100A900000782044062190FBF1F201FB1200C5B260
:100AA00005EB4500104E3044837805EB450030449B
:100AB000427805EB4500315C204600F091F8601C5F
:100AC000C4B20C2CE3DB00F0A9F806480078401C07
:100AD0000449087008460078062801DB00200870E9
:100AE00070BD0000200000209827000810B50024E9
:100AF00008E01648017800231A46204600F070F8F6
:100B0000601CC4B20C2CF4DB00F088F80F4800889D
:100B10000F490988084400B20C4908800846B0F91A
:100B20000000C82806DBC82008806FF009000849CB
:100B300008800AE00548B0F90000002805DC002024
:100B4000024908800A200249088010BD22000020C6
:100B50002400002070B5FFF783FF002412E0114845
:100B600000780C30001B0C2190FBF1F201FB12000D
:100B7000C5B20D48015D00231A46284600F030F842
:100B8000601CC4B2052CEADB00F048F80548007888
:100B9000401C04490870084600780C2801DB00203E
:100BA000087070BD26000020AA27000810B5FFF7C6
:100BB00057FF00231A46FF210848007800F010F87C
:100BC00000F02CF805480078401C044908700846DD
:100BD00000780C2801DB0020087010BD1E000020EA
:100BE000F0B504460D4616461F460C2094FBF0F166
:100BF00000FB1140C4B2062C07DA611CC8B23B46A8
:100C00003246294600F02CF907E0C4F10C01C8B2C5
:100C10003B463246294600F071FBF0BD10B5062078
:100C200000F0B4F8062000F0FFFA10BD01202949B9
:100C3000086000BF00BF00BF00BF00BF00BF00BF13
:100C400000BF00BF00BF00BF00BF00BF00BF00BFAC
:100C500000BF00BF00BF00BF00BF00201E49C1F899
:100C6000B40100BF00BF00BF00BF00BF00BF00BF96
:100C700000BF00BF00BF00BF00BF00BF00BF00BF7C
:100C800000BF00BF00BF00BF00BF00BF00BF00BF6C
:100C900000BF00BF00BF00BF00BF00BF00BF00BF5C
:100CA00000BF00BF00BF00BF00BF00BF00BF00BF4C
:100CB00000BF00BF00BF00BF00BF00BF00BF00BF3C
:100CC00000BF00BF00BF00BF00BF00BF00BF00BF2C
:100CD00070470000B401224200002242012029494D
:100CE000086000BF00BF00BF00BF00BF00BF00BF63
:100CF00000BF00BF00BF00BF00BF00BF00BF00BFFC
:100D000000BF00BF00BF00BF00BF00BF00BF00BFEB
:100D100000BF00BF00BF00BF00BF00BF00BF00BFDB
:100D200000BF00BF00BF00BF00BF00BF00BF00BFCB
:100D300000BF00BF00BF00BF00BF00BF00BF00BFBB
:100D400000BF00BF00BF00BF00BF00BF00BF00BFAB
:100D500000200D49C1F8B40100BF00BF00BF00BFB3
:100D600000BF00BF00BF00BF00BF00BF00BF00BF8B
:100D700000BF00BF00BF00BF00BF00BF00BF00BF7B
:100D800070470000B40122420000224270B50546BF
:100D9000002451E02C48005D00F0800010B9FFF7FE
:100DA00045FF01E0FFF79AFF2748005D00F0400093
:100DB00010B9FFF73BFF01E0FFF790FF2248005D0D
:100DC00000F0200010B9FFF731FF01E0FFF786FFC8
:100DD0001D48005D00F0100010B9FFF727FF01E08B
:100DE000FFF77CFF1848005D00F0080010B9FFF71E
:100DF0001DFF01E0FFF772FF1348005D00F00400E3
:100E000010B9FFF713FF01E0FFF768FF0E48005D20
:100E100000F0020010B9FFF709FF01E0FFF75EFFE5
:100E20000948005D00F0010010B9FFF7FFFE01E086
:100E3000FFF754FF601CC4B205EB4500A042A9DCDB
:100E400000F004F870BD00002800002010B500205C
:100E500002490860422001F036F910BDB401224277
:100E600030B5441E04EB4404064D2A55441E04EBE1
:100E70004404641C2955441E04EB4404A41C2B5553
:100E800030BD00002800002000B500201549086191
:100E9000C8601420486100208861C8610846006865
:100EA00040F001000860084640680F4908400D49BD
:100EB0004860084600680D4908400A49086008462D
:100EC000006820F4802008600846406820F4FE0096
:100ED00048600020886000214FF0006000F01CF89E
:100EE00000BD0000001002400000FFF8FFFFF6FE0A
:100EF0000146072323EA01021202054B18684FF648
:100F0000FF031840034B18431043014B1860704710
:100F10000CED00E00000FA05024A0A400243024BD1
:100F20001A60704780FFFF1F08ED00E000BFFEE77A
:100F30007047000070B5002100230F22C47804B36D
:100F4000154C246804F4E064C4F5E064210AC1F19E
:100F50000403CA40447804FA03F18478144021431E
:100F600009010E4C0678A155047804F01F050124F0
:100F7000AC4005786D11AD0005F1E025C5F80041E4
:100F800009E0047804F01F050124AC40044D067804
:100F9000761145F8264070BD0CED00E000E400E05D
:100FA00080E100E0014608B270470146484200B2C5
:100FB0007047704729B1064AD2690243044BDA618F
:100FC00004E0034AD2698243014BDA6170470000B2
:100FD0000010024029B1064A92690243044B9A610B
:100FE00004E0034A92698243014B9A617047000012
:100FF0000010024030B500210022002400232D4DB6
:101000006D6805F00C0121B1042905D0082923D110
:1010100005E0294D056022E0274D05601FE0254DC4
:101020006D6805F47012234D6D6805F48034022557
:1010300005EB92421CB9214D554305600BE01D4D57
:101040006D6805F400351DB11C4D5543056002E087
:10105000194D5543056002E0174D056000BF00BF04
:10106000144D6D6805F0F0010909154D6B5C0568BC
:10107000DD4045600F4D6D6805F4E061090A104DD3
:101080006B5C4568DD4085600A4D6D6805F4605114
:10109000C90A0B4D6B5C4568DD40C560054D6D6848
:1010A00005F44041890B074D6B5CC568B5FBF3F552
:1010B000056130BD0010024000127A0000093D00B9
:1010C000060000201600002001202949086000BF0A
:1010D00000BF00BF00BF00BF00BF00BF00BF00BF18
:1010E00000BF00BF00BF00BF00BF00BF00BF00BF08
:1010F00000BF00BF00BF00201E49C1F8B80100BFFB
:1011000000BF00BF00BF00BF00BF00BF00BF00BFE7
:1011100000BF00BF00BF00BF00BF00BF00BF00BFD7
:1011200000BF00BF00BF00BF00BF00BF00BF00BFC7
:1011300000BF00BF00BF00BF00BF00BF00BF00BFB7
:1011400000BF00BF00BF00BF00BF00BF00BF00BFA7
:1011500000BF00BF00BF00BF00BF00BF00BF00BF97
:1011600000BF00BF00BF00BF00BF00BF704700004E
:10117000B80122420000224201202949086000BF34
:1011800000BF00BF00BF00BF00BF00BF00BF00BF67
:1011900000BF00BF00BF00BF00BF00BF00BF00BF57
:1011A00000BF00BF00BF00BF00BF00BF00BF00BF47
:1011B00000BF00BF00BF00BF00BF00BF00BF00BF37
:1011C00000BF00BF00BF00BF00BF00BF00BF00BF27
:1011D00000BF00BF00BF00BF00BF00BF00BF00BF17
:1011E00000BF00BF00BF00BF00BF00BF00200D490F
:1011F000C1F8B80100BF00BF00BF00BF00BF00BF03
:1012000000BF00BF00BF00BF00BF00BF00BF00BFE6
:1012100000BF00BF00BF00BF00BF00BF704700009D
:10122000B80122420000224270B50546002451E078
:101230002C48005D00F0800010B9FFF745FF01E089
:10124000FFF79AFF2748005D00F0400010B9FFF754
:101250003BFF01E0FFF790FF2248005D00F0200017
:1012600010B9FFF731FF01E0FFF786FF1D48005D71
:1012700000F0100010B9FFF727FF01E0FFF77CFF37
:101280001848005D00F0080010B9FFF71DFF01E0ED
:10129000FFF772FF1348005D00F0040010B9FFF77C
:1012A00013FF01E0FFF768FF0E48005D00F0020049
:1012B00010B9FFF709FF01E0FFF75EFF0948005D85
:1012C00000F0010010B9FFF7FFFE01E0FFF754FF47
:1012D000601CC4B205EB4500A042A9DC00F004F894
:1012E00070BD00004000002010B5002002490860D9
:1012F000422000F0E8FE10BDB801224230B5441E85
:1013000004EB4404064D2A55441E04EB4404641CBB
:101310002955441E04EB4404A41C2B5530BD000089
:10132000400000202DE9F04705460E4614460220F5
:1013300000F026F80FFA80F94846FFF733FE2080C8
:10134000032000F01DF80FFA80F94846FFF72DFE44
:1013500060802088684307B2608870430FFA80F885
:1013600025B1002F02DD6068384460602EB1B8F10D
:10137000000F02DDA0684044A060BDE8F0870000D7
:1013800070B50446022C09D1400700F0C6FB05B237
:101390000021600700F0E3FC284670BD032C09D152
:1013A000054800F0BAFB05B20021034800F0D7FC65
:1013B0002846F2E70020F0E70004004010B50BA03B
:1013C000FEF72EFF0E4B4FF4FA5201210846FFF7AD
:1013D00014F90CA0FEF724FF0F4B4FF4FA524FF014
:1013E000FF310846FFF709F910BD00004143544999
:1013F0004F4E3A20666F72776172640D0A000000EA
:10140000890A0008414354494F4E3A207265766577
:101410007273650D0A000000ED0A00082DE9FF4F08
:1014200091B004460D461F461E9EB4F1FF3F08DBF7
:10143000012C06DCB5F1FF3F03DB012D01DC34B9E3
:101440002DB9FFF7F5F8002015B0BDE8F08F0020AA
:10145000ADF82800ADF82A000B900C90804681462C
:1014600004900EB1642000E08C20099021460FA862
:1014700000F04CF929460DA800F048F9FFF7EEF905
:1014800077E00AAA29462046FFF74CFF4EB13B46BB
:101490000AAA29462046FFF725F810B1012004903A
:1014A0006AE00AA823463246CDE90107009548467E
:1014B000099900F088F882460AAA29462046FFF7D3
:1014C0002BF88346AAEB0B0000B208900AEB0B0046
:1014D00000B207900998233002B228210898FFF73C
:1014E0006AF808900998233002B228210798FFF77C
:1014F00062F8079034B146B13A4620460B9900F0A5
:10150000B2FD10B10020089003E00898604300B2DB
:10151000089035B146B13A4628460C9900F0A3FD33
:1015200010B10020079003E00798684300B20790CD
:10153000BDF928200FA8089900F0F6F80690BDF92B
:101540002A200DA8079900F0EFF80590DDE90510B5
:10155000FFF764F81F9808B11F988047322000F009
:10156000A3FD08F132001FFA80F809F101001FFA0B
:1015700080F91398804584DB00BFFFF759F8FFF727
:1015800021FA36B1049820B906A0DDE90B12FEF766
:1015900047FE4FF4487000F087FD0EB1049853E702
:1015A000012051E7504944205455524E2054494D92
:1015B000454F5554204C3D256C7520523D256C758A
:1015C0000D0A000070472DE9F04F07460E4694467D
:1015D0009946DDE909850B9C30460A2F10DAA6F101
:1015E000280A07F1010B0AFB0BFA4FF00A0B9AFBD2
:1015F000FBFA0AF1280A0FFA8AF1814200DA08465A
:10160000BCF1000F01D1BDE8F08F2246B9F1000F07
:101610000ED0D5F804A0A24502D34FF0000A03E093
:10162000D5F804A0A4EB0A0A5346934200D21A4606
:10163000B8F1000F0ED0D5F808A0A24502D34FF0A4
:10164000000A03E0D5F808A0A4EB0A0A5346934227
:1016500000D21A46B2F5E17F0ED2A6F1280A0AFBA3
:1016600002FA4FF4E17BBAFBFBFA0AF1280A0FFAFF
:101670008AF1814200DA084600BFC4E770B504462B
:101680002046FEF78FFF04462CB900200B49086066
:101690000B49088011E0002C05DD00200749086097
:1016A00007490C8009E0604285B2012003490860C7
:1016B00041F61F40401B0249088070BDB88121429D
:1016C0003808004070B504462046FEF76BFF04461C
:1016D0002CB900200B4908600B49088011E0002C50
:1016E00005DD00200749086007490C8009E06042D9
:1016F00085B201200349086041F61F40401B0249A2
:10170000088070BDB48121423408004070B50446A1
:101710000D460020606041F2680105FB01F000F019
:1017200073FE206070BD00002DE9F05F04460D4699
:10173000174625B9002020606060BDE8F09FE81BD7
:1017400000F062FE064631461E4800F0A9FE8246C1
:101750003046616800F0A2FF83461B4900F0A0FEFE
:101760008146514600F0C6FD80464146206800F0A3
:10177000C1FD20601549206800F05EFF02D21348C9
:10178000206006E01249206800F056FE01D21048A1
:101790002060002D07DD0021206800F04DFE02D200
:1017A0000020206008E0002D06DA0021206800F00B
:1017B00043FF01D2002020606660206800F008FE30
:1017C00000B2BAE7CDCC4C3F0000E04000F8E04565
:1017D00000F8E0C530B504460025FFF755FB1F486B
:1017E000006840F480301D49086000BF1B48006855
:1017F000400C0028FAD04FF4806018494860A01EC1
:10180000C4B20846406840EA8440486008464068E0
:1018100040F4803048601248006840F032001049BF
:1018200008600E48006840F080700C49086000BFF6
:101830000A480068400E0028FAD00848406840F086
:1018400002000649486005E004484068C0F3870587
:1018500005F00305022DF7D130BD00000010024055
:101860000020024070470000F0B50C4615460022EB
:101870000021068C4FF6FE773E400684028B018CD9
:101880004FF60C7632407E1C06EA03162E43324396
:10189000104EB0420ED0104EB0420BD0B0F1804F7F
:1018A00008D00E4EB04205D00D4EB04202D00D4EC3
:1018B000B04206D14FF6FD76314044F00106314387
:1018C00005E04FF6F576314044F0010631430283DE
:1018D0000184F0BD002C01400034014000040040B0
:1018E00000080040000C0040F0B50C4615460022F0
:1018F00000210026078C4FF6EF7C07EA0C070784CF
:10190000028B018C4FF6FF7707EA041640F6FF477B
:101910003A404FF6FF7707EA03373A434FF6FF772F
:1019200007EA05273A43114FB8420ED0104FB8428C
:101930000BD0B0F1804F08D00E4FB84205D00E4FFB
:10194000B84202D00D4FB84206D14FF6DF7739408A
:1019500046F01007394305E04FF65F77394044F011
:101960001007394302830184F0BD0000002C0140C0
:10197000003401400004004000080040000C00401A
:10198000F0B50C461546002200210026078C4FF6C4
:10199000FF6C07EA0C070784828B018C4FF6FF77F8
:1019A00007EA04264FF60C773A404FF6FF7707EA2E
:1019B00003172F433A43114FB8420ED0104FB8428D
:1019C0000BD0B0F1804F08D00E4FB84205D00E4F6B
:1019D000B84202D00D4FB84206D14FF6FF573940FA
:1019E00046F48077394305E04FF2FF57394044F41D
:1019F0008077394382830184F0BD0000002C0140D0
:101A0000003401400004004000080040000C004089
:101A1000F0B50C461546002200210026078C4EF634
:101A2000FF7C07EA0C070784828B018C4FF6FF7757
:101A300007EA043640F6FF473A404FF6FF7707EAD9
:101A400005273A434FF6FF7707EA03373A43114F2A
:101A5000B8420ED0104FB8420BD0B0F1804F08D032
:101A60000E4FB84205D00E4FB84202D00D4FB842CB
:101A700006D14DF6FF77394046F48057394305E0EB
:101A800047F6FF57394044F4805739438283018435
:101A9000F0BD0000002C0140003401400004004073
:101AA00000080040000C004021B1028842F0800292
:101AB000028004E002884FF67F731A40028070476C
:101AC00021B1028842F00102028004E002884FF650
:101AD000FE731A4002807047F0B50C4615461E464C
:101AE0000021002200230189028B038C4FF6F87736
:101AF000394021434FF6FC473A4040F201173A4340
:101B00004FF6DD773B404FF6FF7707EA06172F4386
:101B10003B43018102830384F0BD0146888C7047FA
:101B200070B505460C46244885420ED023488542B0
:101B30000BD0B5F1804F08D02148854205D021480F
:101B4000854202D02048854200D100E000BF2088B5
:101B500050B92389A28861882846FFF785FEE1886D
:101B6000284600F0FEF825E0208804280AD12389C1
:101B7000A28861882846FFF7B7FEE188284600F072
:101B8000F9F817E0208808280AD12389A2886188FB
:101B90002846FFF7F5FEE188284600F0F8F809E04E
:101BA0002389A28861882846FFF732FFE18828460A
:101BB00000F0F6F870BD0000002C01400034014038
:101BC0000004004000080040000C0040002101809B
:101BD0004180012181800021C18001817047000086
:101BE00070B5002400220023058C4FF6FE763540A8
:101BF0000584028C8388048B4FF68F752C40B51EAC
:101C00002C400D882C43751E2A400D892A434D888F
:101C10002A43144DA8420BD0134DA84208D0134DAF
:101C2000A84205D0124DA84202D0124DA84213D1AD
:101C30004FF6F7752A404D892A434FF6FB752A4027
:101C40008D882A434FF6FF652B404FF6FF552B40FA
:101C50008D892B43CD892B4383800483CD88858652
:101C6000028470BD002C014000340140004001405E
:101C700000440140004801400A460021018B4FF614
:101C8000F7731940114301837047000070B50024B9
:101C900000220023058C4FF6EF7635400584028C38
:101CA0008388048B48F6FF752C404FF6FF452C4087
:101CB0000D884FF6FF7606EA05252C434FF6DF75B3
:101CC0002A400D8906EA05152A434D8806EA0515BE
:101CD0002A43154DA84202D0144DA8421DD14FF6FB
:101CE0007F752A404D894FF6FF7606EA05152A438F
:101CF0004FF6BF752A408D8806EA05152A434FF630
:101D0000FF352B404FF2FF752B408D8906EA850584
:101D10002B43CD8906EA85052B4383800483CD8838
:101D20000587028470BD0000002C01400034014092
:101D30000A460021018B4FF2FF7319404FF6FF73E3
:101D400003EA022319430183704700210180418087
:101D50008180C180018141818181C18170478184FD
:101D60007047028B4FF6F3731A400283028B0A43CB
:101D700002837047028B4FF2FF331A400283028BBB
:101D80004FF6FF7303EA01231A4302837047828BE5
:101D90004FF6F3731A408283828B0A438283704723
:101DA000828B4FF2FF331A408283828B4FF6FF7390
:101DB00003EA01231A43828370470000002202884D
:101DC0001D4B98420ED01D4B98420BD0B0F1804F66
:101DD00008D01B4B984205D01A4B984202D01A4BA0
:101DE000984204D14FF68F731A404B881A43174B11
:101DF000984207D0164B984204D04FF6FF431A4042
:101E0000CB881A4302808B8883850B8803850A4B15
:101E100098420BD0094B984208D00E4B984205D0FF
:101E20000D4B984202D00D4B984201D10B7A03869C
:101E30000123838270470000002C014000340140E0
:101E40000004004000080040000C0040001000406A
:101E5000001400400040014000440140004801409F
:101E60004FF6FF71818000210180C18041800172A5
:101E70007047000010B540F225510A4800F024F8E0
:101E800000B910BD074800F0DBF8C4B20D2C01D03A
:101E90000A2C00D1F5E704480470012003490870BA
:101EA00000BFEEE7003801400400002005000020DC
:101EB00021B1828942F40052828104E082894DF688
:101EC000FF731A408281704770B5024600240023D8
:101ED0000025002040F66A16B14200D100BFC1F3D0
:101EE000421501F01F03012606FA03F3012D02D16A
:101EF0009689334006E0022D02D1168A334001E074
:101F0000968A33400C12012606FA04F416883440EF
:101F100013B10CB1012000E0002070BDF0B5034604
:101F2000002400260025002040F66A17B94200D19F
:101F300000BF1846C1F3421401F01F06012707FA3B
:101F400006F5012C01D10C3004E0022C01D1103037
:101F500000E014301AB107682F43076002E00768F9
:101F6000AF430760F0BD00002DE9F04786B005469D
:101F70000E460024A24600BFA1460027B08900B14A
:101F800000BF2F462C8A4CF6FF700440F0880443B3
:101F90002C82AC894EF6F3100440B0883189084396
:101FA000718908430443AC81AC8A4FF6FF4004407A
:101FB000B0890443AC8201A8FFF71CF81F48874290
:101FC00002D1DDF810A001E0DDF80CA0A88900F432
:101FD000004040B10AEBCA0000EB0A10316849002A
:101FE000B0FBF1F807E00AEBCA0000EB0A10316819
:101FF0008900B0FBF1F86420B8FBF0F0040120097F
:10200000642101FB1089A88900F4004040B132200E
:1020100000EBC900B0FBF1F000F00700044308E05A
:10202000322000EB09106421B0FBF1F000F00F004A
:1020300004432C8106B0BDE8F08700000038014061
:1020400001468888C0F3080070474FF416510160BC
:1020500000218180C18001810C2141810021818189
:10206000704700BFFEE703460BB90120704791425D
:1020700001D30120FAE70020F8E7704708B50121F5
:102080001020FEF7A7FF4FF4C040ADF8000010206D
:102090008DF8030003208DF8020069460148FEF721
:1020A000EBFB08BD0010014007E041F64B4100BFCB
:1020B0000A1EA1F1010399B2FAD1021EA0F1010397
:1020C00098B2F2D1704706E0082100BF0A1EA1F1C4
:1020D000010399B2FAD1021EA0F1010398B2F3D123
:1020E0007047000000BF054A128802F04002002A33
:1020F000F9D0C2B2014B1B1D1A8070470038014055
:1021000008B50920FFF766FB0220FEF7F1FE4FF449
:10211000E13000F09BF80220FEF73CFC0120FEF7C6
:1021200039FCFEF78BFAFFF7A9FFFEF781FAFEF7FD
:1021300049FC23A0FEF774F840F6B830FFF7B4FF6F
:102140003CE025A0FEF76CF82A4841F6641340F6FF
:102150005432002100900120FEF738FAFFF72EF9E3
:1021600025A0FEF75DF82A4841F6641340F6543284
:10217000012100900020FEF729FAFFF71FF925A0A2
:10218000FEF74EF8294841F6641340F2AA524FF088
:10219000FF3100900120FEF719FAFFF70FF924A094
:1021A000FEF73EF8284841F6641340F2AA52012196
:1021B0000090881EFEF70AFAFFF700F9C1E7000059
:1021C000504944206361722064656D6F20726561BF
:1021D00064790D0A00000000414354494F4E3A20F3
:1021E0007069766F742072696768742039300D0ADF
:1021F00000000000AD0B0008414354494F4E3A2007
:102200007069766F74206C6566742039300D0A0031
:10221000290A0008414354494F4E3A207370696EB1
:102220002072696768742039300D0A00550B000868
:10223000414354494F4E3A207370696E206C656675
:10224000742039300D0A0000D109000810B586B09D
:102250000446012144F20400FEF7BCFE4FF4007076
:10226000ADF8140003208DF8160018208DF8170023
:1022700005A91E48FEF700FB4FF48060ADF814007E
:1022800004208DF8170005A91848FEF7F5FA252057
:102290008DF8000003208DF801008DF80200012068
:1022A0008DF803006846FEF745FE01A8FFF7CDFE56
:1022B00001940020ADF80800ADF80A00ADF80C005C
:1022C000ADF810000C20ADF80E0001A90848FFF78A
:1022D0004BFE012240F225510548FFF71FFE012168
:1022E0000348FFF7E5FD06B010BD000000080140FF
:1022F0000038014090EA010F48BF81F0004100F131
:10230000D481421A3CBF801A89184FEAD0524FF04C
:102310007F4C1CEA410FA2EBD15318BF9CEA026F1D
:1023200000F03B804FF0004C4CEA00204CEA0121C9
:1023300021FA03FC10EB0C0C1ED202F1FF325FEA13
:102340001C2040EBC25038BF70471CF07F0F4FEA93
:10235000400C18BFBCF17F4F38BF7047C3F120035A
:10236000994008BF20F00100BCF17F4F38BF704793
:10237000A0F1C04000F05BB94FEA3C00000A40EB1E
:10238000C25028BF1CF0FF0F4FEA400CE6D018BF28
:10239000BCF17F4F38BF7047EAE79CEA026F05D077
:1023A00010EA5C0F08BF00F00040704710B500F065
:1023B000F8F800BF64FBBE3E401058BFC0F140407B
:1023C000491058BFC1F140418142EFF3008070478E
:1023D00041000B0ED3F19E0208D950F400034FEADE
:1023E000032323FA02F048BF4042704710B500F0C3
:1023F000D8F800BF49922480002070476FF0004257
:1024000082EA20007047000010F0004148BF4042BF
:10241000B0FA80F310FA03F2C3F19D030BD051EA36
:10242000C35101EB1220530638BF704700F1010081
:1024300008BF20F00100704750EA010C00F1138042
:102440001CF5000F58BFBCF5000F01D4884270473F
:1024500007D710F5000F58BF11F5000F15D48842AB
:102460007047894270471CF5000F04D5BCF5000F7A
:10247000F7D5814270474FF0807C1CEB400F38BF8E
:102480001CEB410F01D28142704710B500F089F872
:10249000922449004FF000504FF08051FFF78CBF5D
:1024A0004FF47F0C1CEAD0121EBF1CEAD11392EA33
:1024B0000C0F93EA0C0F00F0478090EA010F48BF21
:1024C00042F480724FF0004C4CEA00204CEA0121AB
:1024D00002EB0302A0FB0113A2F50002002918BFC2
:1024E00043F001035B0028BF4FEA330342EB224273
:1024F0005FEA132C4CEBC2502EBFBCEB436FB2F51E
:102500007C0F70474FEA036CBCF1004F08BF20F00E
:102510000100B2F57C0F38BF70470BD582F0FF0287
:1025200012F5803FC8BF704700F1C040D8BF00F02F
:102530000040704700F5000C5FEA4C0C48BF704744
:10254000B0F1C04000F073B890EA010F0CEAD1136B
:1025500048BF42F48072624538BF634504D280EAC6
:10256000010000F00040704710B500F01AF800BFFD
:102570008900013E00F007B800F009B85FEA410C9D
:102580005FEA1C6C08D080EA010000F050B85FEAF6
:10259000400C5FEA1C6CF6D14FF00040A0F58000C3
:1025A00070470EF1020E2EF0030E5EF8044B24422B
:1025B00004D44FEA4102B2F17F4F11D84FEA4003F1
:1025C000B3F17F4F0CD80ED14FEAD07CB2F17F4FE0
:1025D0000CEB4C0C0CF1020C08BF4CEBD17C04E072
:1025E0004FF0080C01E04FEAD17C0CEB4C0324FACD
:1025F00003F404F00704B4F1040C06D20EEB840CCF
:10260000BDE810404CF0010C6047DFE80CF0070813
:1026100002024FF00040A0F5800010BD08464200C5
:1026200018BFD2F1807288BF00F0004010BDFF21BA
:1026300041EAD050C005704751EA000C00F1138008
:102640001CF5000F58BFBCF5000F01D48142704744
:1026500007D711F5000F58BF10F5000F15D48142B0
:102660007047894270471CF5000F04D5BCF5000F78
:10267000F7D5884270474FF0807C1CEB410F38BF84
:102680001CEB400F01D28842704780EA010081EACA
:10269000000180EA0100FFF7F8BE000090EA010F98
:1026A00048BF81F000413FF52CAE421A04D882F0B9
:1026B0000042A0EB020011444FEAD0524FF07F4C91
:1026C0001CEA410FA2EBD15318BF9CEA026F4AD01B
:1026D0004FF0004C4CEA00204CEA012121FA03FCA7
:1026E000B0EB0C0C0FD412F0FE0F36D05FEA4C00AA
:1026F0001DD5001240EBC25038BF70471CF03F0F91
:1027000018BF70470BE0A2F101025FEA1C2040EB0A
:10271000C25038BF70471CF07F0F18BF7047C3F11D
:102720002003994014BF401E20F00100704780082C
:102730004FEA122308BF7047B0FA80FCA2EB0C02EC
:10274000CCF1280C60FA0CF093EA122F04BF00EBD6
:10275000C25070474FEAC3707047130A5FEADC103B
:1027600008BF7047F6E79CEA026F04D010EA5C0FDE
:1027700008BF0020704710B5FFF713FF40DFF63E9B
:1027800081F000407047FF0000FFFF0000FF0000E5
:10279000FFFF0000FFFF00FFFF0000FFFF0000FF42
:1027A0000000FFFF0000FFFF00FFFFA05A2D0FFFFA
:1027B000A05A2D0FD4270008000000202800000098
:1027C0006C010008FC27000828000020900200008F
:1027D0008801000800000000000000000000010265
:1027E00003040102030406070809020406080101A4
:0C27F00000000000000000000A000000D3
:04000005080001D717
:00000001FF
