:020000040800F2
:1000000000040020CF010008A9050008CD04000865
:10001000A5050008850200081B0A00080000000072
:1000200000000000000000000000000011060008B1
:10003000B503000800000000AB0500081507000824
:10004000EF010008EF010008EF010008EF010008D0
:10005000EF010008EF010008EF010008EF010008C0
:10006000EF010008EF010008EF010008EF010008B0
:10007000EF010008EF010008EF010008EF010008A0
:10008000EF010008EF010008EF010008EF01000890
:10009000EF010008EF010008EF010008EF01000880
:1000A000EF010008EF010008EF010008EF01000870
:1000B000EF010008EF010008EF010008EF01000860
:1000C000EF010008EF010008EF010008EF01000850
:1000D000EF01000881090008EF010008EF010008A6
:1000E000EF010008EF010008EF010008EF01000830
:1000F000EF010008EF010008EF010008EF01000820
:10010000EF010008EF010008EF010008EF0100080F
:10011000EF010008EF010008EF010008EF010008FF
:10012000EF010008EF010008EF010008EF010008EF
:1001300000F002F800F03AF80AA090E8000C8244BF
:100140008344AAF10107DA4501D100F02FF8AFF29C
:10015000090EBAE80F0013F0010F18BFFB1A43F0A5
:10016000010318477009000090090000103A24BFED
:1001700078C878C1FAD8520724BF30C830C144BF0C
:1001800004680C607047000000230024002500264E
:10019000103A28BF78C1FBD8520728BF30C148BFEA
:1001A0000B6070471FB51FBD10B510BD00F037F8CC
:1001B0001146FFF7F7FF00F043FC00F055F803B4D9
:1001C000FFF7F2FF03BC00F02AFC000070470B4869
:1001D00080470B4981F308880A480047FEE7FEE79D
:1001E000FEE7FEE7FEE7FEE7FEE7FEE7FEE7FEE7E7
:1001F00005480649044A064B70470000CD01000837
:100200006802002031010008680000206802002018
:100210006800002070477047704770477047754608
:1002200000F02CF8AE4605006946534620F0070062
:10023000854618B020B5FFF7DBFFBDE820404FF042
:1002400000064FF000074FF000084FF0000B21F0C0
:100250000701AC46ACE8C009ACE8C009ACE8C0098D
:10026000ACE8C0098D46704710B50446AFF3008076
:100270002046BDE81040FFF7A2BF000000487047CD
:100280000800002000BFFEE70146B1F5E15F02DB98
:1002900041F61F40704711F5E15F01DC0148F9E7C5
:1002A0000846F7E7E1E3FFFF70B505460C46284630
:1002B00000F0B0F9204600F0C9F970BD10B500217A
:1002C0000846FFF7F1FF10BD00B589B001210C20F1
:1002D00000F07CF90121042000F068F94FF4C040DF
:1002E000ADF8200010208DF8230003208DF82200A7
:1002F00008A92D4800F05FF8C320ADF82000482081
:100300008DF8230003208DF8220008A9274800F06B
:1003100052F8C020ADF8200018208DF823000320EB
:100320008DF8220008A9204800F045F805A800F043
:100330001DFB41F61F40ADF818000920ADF8140070
:100340000020ADF81A00ADF8160005A9184800F015
:10035000BBFA01A800F0ADFA6020ADF8040001205E
:10036000ADF806000020ADF80A00ADF80C0001A9B8
:100370000F4800F0E9F901A90D4800F03BFA082107
:100380000B4800F02DFA0821094800F085FA0121F8
:10039000074800F0C0F9FFF791FF0121044800F081
:1003A000C6F909B000BD0000000C01400008014082
:1003B0000008004070472DE9F04102460025002664
:1003C000002000230024002791F803C00CF00F0543
:1003D00091F803C00CF0100CBCF1000F03D091F8A1
:1003E00002C04CEA050591F800C0BCF1000F31D005
:1003F000146800202BE04FF0010C0CFA00F3B1F868
:1004000000C00CEA03069E4220D183004FF00F0C7F
:100410000CFA03F7BC4305FA03FC4CEA040491F818
:1004200003C0BCF1280F06D14FF0010C0CFA00FC00
:10043000C2F814C00AE091F803C0BCF1480F05D11E
:100440004FF0010C0CFA00FCC2F810C0401C082848
:10045000D1D31460B1F800C0BCF1FF0F34DD546893
:1004600000202EE000F1080C4FF0010808FA0CF310
:10047000B1F800C00CEA03069E4221D183004FF080
:100480000F0C0CFA03F7BC4305FA03FC4CEA040416
:1004900091F803C0BCF1280F05D100F1080C08FA4F
:1004A0000CF8C2F8148091F803C0BCF1480F07D1D2
:1004B00000F1080C4FF0010808FA0CF8C2F810809F
:1004C000401C0828CED35460BDE8F08100BFFEE791
:1004D00001464906084A926942F00102064B9A61B8
:1004E000064A526822F0E062044B5A601A4652688B
:1004F0000A435A60704700000010024000000140AB
:1005000000B5002015490861C8601420486100202A
:100510008861C8610846006840F00100086008462C
:1005200040680F4908400D494860084600680D4979
:1005300008400A4908600846006820F480200860E6
:100540000846406820F4FE004860002088600021D2
:100550004FF0006000F01CF800BD000000100240E9
:100560000000FFF8FFFFF6FE0146072323EA010221
:100570001202054B18684FF6FF031840034B18434F
:100580001043014B186070470CED00E00000FA05C5
:10059000024A0A400243024B1A60704780FFFF1F65
:1005A00008ED00E000BFFEE77047704729B1064A3A
:1005B000D2690243044BDA6104E0034AD269824300
:1005C000014BDA61704700000010024029B1064A71
:1005D00092690243044B9A6104E0034A92698243A0
:1005E000014B9A61704700000010024070B505464B
:1005F0000E46144631462846FFF756FE204600F0C8
:100600000FFAFFF75BFE4FF4487000F009FA70BD77
:100610007047000010B504462046FFF735FE04463B
:10062000002C05DB00200749086007490C8008E022
:10063000012004490860604241F61F41081A02493E
:10064000088010BDB88121423808004010B504462A
:100650002046FFF719FE0446002C05DB0020074961
:10066000086007490C8008E00120044908606042E6
:1006700041F61F41081A0249088010BDB481214289
:100680003408004030B504460025FFF739FF1F4805
:10069000006840F480301D49086000BF1B480068B6
:1006A000400C0028FAD04FF4806018494860A01E22
:1006B000C4B20846406840EA844048600846406842
:1006C00040F4803048601248006840F03200104921
:1006D00008600E48006840F080700C49086000BF58
:1006E0000A480068400E0028FAD00848406840F0E8
:1006F00002000649486005E004484068C0F38705E9
:1007000005F00305022DF7D130BD000000100240B6
:1007100000200240704721B1028842F0800202802E
:1007200004E002884FF67F731A400280704721B1BF
:10073000028842F00102028004E002884FF6FE7354
:100740001A4002807047000070B500240022002388
:10075000058C4FF6FE7635400584028C8388048B29
:100760004FF68F752C40B51E2C400D882C43751EFE
:100770002A400D892A434D882A43144DA8420BD0A4
:10078000134DA84208D0134DA84205D0124DA842DF
:1007900002D0124DA84213D14FF6F7752A404D8969
:1007A0002A434FF6FB752A408D882A434FF6FF6592
:1007B0002B404FF6FF552B408D892B43CD892B4382
:1007C00083800483CD888586028470BD002C01401F
:1007D0000034014000400140004401400048014015
:1007E0000A460021018B4FF6F7731940114301832C
:1007F0007047000070B5002400220023058C4FF6DE
:10080000EF7635400584028C8388048B48F6FF75AB
:100810002C404FF6FF452C400D884FF6FF7606EA38
:1008200005252C434FF6DF752A400D8906EA05158C
:100830002A434D8806EA05152A43154DA84202D0E1
:10084000144DA8421DD14FF67F752A404D894FF6B1
:10085000FF7606EA05152A434FF6BF752A408D88B4
:1008600006EA05152A434FF6FF352B404FF2FF7578
:100870002B408D8906EA85052B43CD8906EA85053F
:100880002B4383800483CD880587028470BD0000DC
:10089000002C0140003401400A460021018B4FF238
:1008A000FF7319404FF6FF7303EA022319430183D4
:1008B00070470021018041808180C1800181418198
:1008C0008181C18170470000002202881D4B98423F
:1008D0000ED01D4B98420BD0B0F1804F08D01B4B6F
:1008E000984205D01A4B984202D01A4B984204D134
:1008F0004FF68F731A404B881A43174B984207D014
:10090000164B984204D04FF6FF431A40CB881A4347
:1009100002808B8883850B8803850A4B98420BD015
:10092000094B984208D00E4B984205D00D4B984287
:1009300002D00D4B984201D10B7A038601238382AA
:1009400070470000002C01400034014000040040CA
:1009500000080040000C004000100040001400405F
:100960000040014000440140004801404FF6FF7143
:10097000818000210180C1804180017270470000A8
:1009800010B540F225510A4800F018F800B910BD22
:10099000074800F03DF8C4B20D2C01D00A2C00D15C
:1009A000F5E70448047001200349087000BFEEE732
:1009B00000380140040000200500002070B5024608
:1009C000002400230025002040F66A16B14200D121
:1009D00000BFC1F3421501F01F03012606FA03F31D
:1009E000012D02D19689334006E0022D02D1168AEC
:1009F000334001E0968A33400C12012606FA04F4D3
:100A00001688344013B10CB1012000E0002070BD05
:100A100001468888C0F30800704700BFFEE77047B2
:100A200007E041F64B4100BF0A1EA1F1010399B254
:100A3000FAD1021EA0F1010398B2F2D17047000072
:100A40000920FFF71FFE0220FFF78EFD0220FFF7AF
:100A50003FFD0120FFF73CFDFFF736FC40F6B830C4
:100A6000FFF7DEFF33E04FF4FA62002141F27070CD
:100A7000FFF7BCFD4FF4FA6200211548FFF7B6FD01
:100A80004FF4FA6241F270710020FFF7AFFD4FF4AE
:100A9000FA620F490020FFF7A9FD4FF4FA6241F214
:100AA00070710846FFF7A2FD4FF4FA620849084644
:100AB000FFF79CFD4FF4FA6241F270714842FFF774
:100AC00095FD4FF4FA6202494842FFF78FFDCAE7ED
:100AD00090E8FFFFF40A0008000000200800000072
:100AE0006C010008FC0A00080800002060020000F9
:0C0AF00088010008000000000000000069
:04000005080001CF1F
:00000001FF
