:020000040800F2
:1000000000040020CF0100086D0A0008CD0400089C
:10001000690A00088502000853110008000000006A
:100020000000000000000000000000004B0D000870
:10003000B5030008000000006F0A00084D0E00081C
:10004000EF010008EF010008EF010008EF010008D0
:10005000EF010008EF010008EF010008EF010008C0
:10006000EF010008EF010008EF010008EF010008B0
:10007000EF010008EF010008EF010008EF010008A0
:10008000EF010008EF010008EF010008EF01000890
:10009000EF010008EF010008EF010008EF01000880
:1000A000EF010008EF010008EF010008EF01000870
:1000B000EF010008EF010008EF010008EF01000860
:1000C000EF010008EF010008EF010008EF01000850
:1000D000EF010008B9100008EF010008EF01000867
:1000E000EF010008EF010008EF010008EF01000830
:1000F000EF010008EF010008EF010008EF01000820
:10010000EF010008EF010008EF010008EF0100080F
:10011000EF010008EF010008EF010008EF010008FF
:10012000EF010008EF010008EF010008EF010008EF
:1001300000F002F800F03AF80AA090E8000C8244BF
:100140008344AAF10107DA4501D100F02FF8AFF29C
:10015000090EBAE80F0013F0010F18BFFB1A43F0A5
:10016000010318473811000058110000103A24BF4D
:1001700078C878C1FAD8520724BF30C830C144BF0C
:1001800004680C607047000000230024002500264E
:10019000103A28BF78C1FBD8520728BF30C148BFEA
:1001A0000B6070471FB51FBD10B510BD00F037F8CC
:1001B0001146FFF7F7FF01F003F800F055F803B41C
:1001C000FFF7F2FF03BC00F0C6FF000070470B48CA
:1001D00080470B4981F308880A480047FEE7FEE79D
:1001E000FEE7FEE7FEE7FEE7FEE7FEE7FEE7FEE7E7
:1001F00005480649044A064B70470000CD01000837
:10020000A802002031010008A8000020A802002058
:10021000A8000020704770477047704770477546C8
:1002200000F02CF8AE4605006946534620F0070062
:10023000854618B020B5FFF7DBFFBDE820404FF042
:1002400000064FF000074FF000084FF0000B21F0C0
:100250000701AC46ACE8C009ACE8C009ACE8C0098D
:10026000ACE8C0098D46704710B50446AFF3008076
:100270002046BDE81040FFF7A2BF000000487047CD
:100280004400002000BFFEE70146B1F5E15F02DB5C
:1002900041F61F40704711F5E15F01DC0148F9E7C5
:1002A0000846F7E7E1E3FFFF70B505460C46284630
:1002B00000F04CFD204600F065FD70BD10B500213A
:1002C0000846FFF7F1FF10BD00B589B001210C20F1
:1002D00000F0DEFB0121042000F0CAFB4FF4C04017
:1002E000ADF8200010208DF8230003208DF82200A7
:1002F00008A92D4800F05FF8C320ADF82000482081
:100300008DF8230003208DF8220008A9274800F06B
:1003100052F8C020ADF8200018208DF823000320EB
:100320008DF8220008A9204800F045F805A800F043
:10033000B9FE41F61F40ADF818000920ADF81400D1
:100340000020ADF81A00ADF8160005A9184800F015
:1003500057FE01A800F049FE6020ADF8040001201E
:10036000ADF806000020ADF80A00ADF80C0001A9B8
:100370000F4800F085FD01A90D4800F0D7FD0821C8
:100380000B4800F0C9FD0821094800F021FE0121B9
:10039000074800F05CFDFFF791FF0121044800F0E1
:1003A00062FD09B000BD0000000C014000080140E2
:1003B0000008004070472DE9F04102460025002664
:1003C000002000230024002791F803C00CF00F0543
:1003D00091F803C00CF0100CBCF1000F03D091F8A1
:1003E00002C04CEA050591F800C0BCF1000F31D005
:1003F000146800202BE04FF0010C0CFA00F3B1F868
:1004000000C00CEA03069E4220D183004FF00F0C7F
:100410000CFA03F7BC4305FA03FC4CEA040491F818
:1004200003C0BCF1280F06D14FF0010C0CFA00FC00
:10043000C2F814C00AE091F803C0BCF1480F05D11E
:100440004FF0010C0CFA00FCC2F810C0401C082848
:10045000D1D31460B1F800C0BCF1FF0F34DD546893
:1004600000202EE000F1080C4FF0010808FA0CF310
:10047000B1F800C00CEA03069E4221D183004FF080
:100480000F0C0CFA03F7BC4305FA03FC4CEA040416
:1004900091F803C0BCF1280F05D100F1080C08FA4F
:1004A0000CF8C2F8148091F803C0BCF1480F07D1D2
:1004B00000F1080C4FF0010808FA0CF8C2F810809F
:1004C000401C0828CED35460BDE8F08100BFFEE791
:1004D00001464906084A926942F00102064B9A61B8
:1004E000064A526822F0E062044B5A601A4652688B
:1004F0000A435A60704700000010024000000140AB
:1005000010B500F04BF800F027F910BD70B500F001
:1005100045F8002411E01148007820440C2190FB9C
:10052000F1F201FB1200C5B20D48035D0022114635
:10053000284600F0F3F8601CC4B2052CEBDB00F099
:100540000BF90648007818B90B200449087004E03C
:1005500002480078401E0149087070BD1300002059
:100560009512000810B500F019F8FF23002211467B
:100570000948007800F0D2F800F0EEF8064800785C
:1005800018B90B200449087004E003480078401EA5
:100590000149087010BD00000B00002010B50124B7
:1005A0000DE000231A461946204600F0F7F9002313
:1005B0001A461946204600F095FB601CC4B2062C72
:1005C000EFDD10BD70B5002419E015480078204417
:1005D000062190FBF1F201FB1200C5B205EB4500CC
:1005E000104E3044837805EB45003044427805EBEB
:1005F0004500315C204600F091F8601CC4B20C2C20
:10060000E3DB00F0A9F806480078401C04490870B4
:1006100008460078062801DB0020087070BD000045
:100620000C0000207E12000810B5002408E01648D7
:10063000017800231A46204600F070F8601CC4B20E
:100640000C2CF4DB00F088F80F4800880F4909886B
:10065000084400B20C4908800846B0F90000C828D8
:1006600006DBC82008806FF00900084908800AE00E
:100670000548B0F90000002805DC00200249088088
:100680000A200249088010BD0E0000201000002042
:1006900070B5FFF783FF002412E0114800780C309A
:1006A000001B0C2190FBF1F201FB1200C5B20D48BA
:1006B000015D00231A46284600F030F8601CC4B2E1
:1006C000052CEADB00F048F805480078401C044996
:1006D0000870084600780C2801DB0020087070BD07
:1006E000120000209012000810B5FFF757FF0023FA
:1006F0001A46FF210848007800F010F800F02CF8A6
:1007000005480078401C04490870084600780C2809
:1007100001DB0020087010BD0A000020F0B504467F
:100720000D4616461F460C2094FBF0F100FB1140CD
:10073000C4B2062C07DA611CC8B23B4632462946D1
:1007400000F02CF907E0C4F10C01C8B23B46324678
:10075000294600F0C7FAF0BD10B5062000F0B4F845
:10076000062000F055FA10BD01202949086000BF9D
:1007700000BF00BF00BF00BF00BF00BF00BF00BF81
:1007800000BF00BF00BF00BF00BF00BF00BF00BF71
:1007900000BF00BF00BF00201E49C1F8B40100BF68
:1007A00000BF00BF00BF00BF00BF00BF00BF00BF51
:1007B00000BF00BF00BF00BF00BF00BF00BF00BF41
:1007C00000BF00BF00BF00BF00BF00BF00BF00BF31
:1007D00000BF00BF00BF00BF00BF00BF00BF00BF21
:1007E00000BF00BF00BF00BF00BF00BF00BF00BF11
:1007F00000BF00BF00BF00BF00BF00BF00BF00BF01
:1008000000BF00BF00BF00BF00BF00BF70470000B7
:10081000B40122420000224201202949086000BFA1
:1008200000BF00BF00BF00BF00BF00BF00BF00BFD0
:1008300000BF00BF00BF00BF00BF00BF00BF00BFC0
:1008400000BF00BF00BF00BF00BF00BF00BF00BFB0
:1008500000BF00BF00BF00BF00BF00BF00BF00BFA0
:1008600000BF00BF00BF00BF00BF00BF00BF00BF90
:1008700000BF00BF00BF00BF00BF00BF00BF00BF80
:1008800000BF00BF00BF00BF00BF00BF00200D4978
:10089000C1F8B40100BF00BF00BF00BF00BF00BF70
:1008A00000BF00BF00BF00BF00BF00BF00BF00BF50
:1008B00000BF00BF00BF00BF00BF00BF7047000007
:1008C000B40122420000224270B50546002451E0E6
:1008D0002C48005D00F0800010B9FFF745FF01E0F3
:1008E000FFF79AFF2748005D00F0400010B9FFF7BE
:1008F0003BFF01E0FFF790FF2248005D00F0200081
:1009000010B9FFF731FF01E0FFF786FF1D48005DDA
:1009100000F0100010B9FFF727FF01E0FFF77CFFA0
:100920001848005D00F0080010B9FFF71DFF01E056
:10093000FFF772FF1348005D00F0040010B9FFF7E5
:1009400013FF01E0FFF768FF0E48005D00F00200B2
:1009500010B9FFF709FF01E0FFF75EFF0948005DEE
:1009600000F0010010B9FFF7FFFE01E0FFF754FFB0
:10097000601CC4B205EB4500A042A9DC00F004F8FD
:1009800070BD00001400002010B50020024908606E
:10099000422000F006FC10BDB401224230B5441ED6
:1009A00004EB4404064D2A55441E04EB4404641C25
:1009B0002955441E04EB4404A41C2B5530BD0000F3
:1009C0001400002000B5002015490861C8601420FB
:1009D000486100208861C8610846006840F0010055
:1009E0000860084640680F4908400D4948600846BD
:1009F00000680D4908400A4908600846006820F46C
:100A0000802008600846406820F4FE00486000200E
:100A1000886000214FF0006000F01CF800BD00006D
:100A2000001002400000FFF8FFFFF6FE014607231A
:100A300023EA01021202054B18684FF6FF03184023
:100A4000034B18431043014B186070470CED00E056
:100A50000000FA05024A0A400243024B1A6070473E
:100A600080FFFF1F08ED00E000BFFEE77047704702
:100A700029B1064AD2690243044BDA6104E0034A11
:100A8000D2698243014BDA617047000000100240D6
:100A900029B1064A92690243044B9A6104E0034A71
:100AA00092698243014B9A61704700000010024036
:100AB00001202949086000BF00BF00BF00BF00BF80
:100AC00000BF00BF00BF00BF00BF00BF00BF00BF2E
:100AD00000BF00BF00BF00BF00BF00BF00BF0020BD
:100AE0001E49C1F8B80100BF00BF00BF00BF00BF72
:100AF00000BF00BF00BF00BF00BF00BF00BF00BFFE
:100B000000BF00BF00BF00BF00BF00BF00BF00BFED
:100B100000BF00BF00BF00BF00BF00BF00BF00BFDD
:100B200000BF00BF00BF00BF00BF00BF00BF00BFCD
:100B300000BF00BF00BF00BF00BF00BF00BF00BFBD
:100B400000BF00BF00BF00BF00BF00BF00BF00BFAD
:100B500000BF00BF70470000B801224200002242DF
:100B600001202949086000BF00BF00BF00BF00BFCF
:100B700000BF00BF00BF00BF00BF00BF00BF00BF7D
:100B800000BF00BF00BF00BF00BF00BF00BF00BF6D
:100B900000BF00BF00BF00BF00BF00BF00BF00BF5D
:100BA00000BF00BF00BF00BF00BF00BF00BF00BF4D
:100BB00000BF00BF00BF00BF00BF00BF00BF00BF3D
:100BC00000BF00BF00BF00BF00BF00BF00BF00BF2D
:100BD00000BF00BF00200D49C1F8B80100BF00BF31
:100BE00000BF00BF00BF00BF00BF00BF00BF00BF0D
:100BF00000BF00BF00BF00BF00BF00BF00BF00BFFD
:100C000000BF00BF70470000B8012242000022422E
:100C100070B50546002451E02C48005D00F08000CE
:100C200010B9FFF745FF01E0FFF79AFF2748005D85
:100C300000F0400010B9FFF73BFF01E0FFF790FF25
:100C40002248005D00F0200010B9FFF731FF01E0FD
:100C5000FFF786FF1D48005D00F0100010B9FFF798
:100C600027FF01E0FFF77CFF1848005D00F0080057
:100C700010B9FFF71DFF01E0FFF772FF1348005D99
:100C800000F0040010B9FFF713FF01E0FFF768FF61
:100C90000E48005D00F0020010B9FFF709FF01E007
:100CA000FFF75EFF0948005D00F0010010B9FFF793
:100CB000FFFE01E0FFF754FF601CC4B205EB4500E6
:100CC000A042A9DC00F004F870BD00002C00002058
:100CD00010B5002002490860422000F062FA10BD01
:100CE000B801224230B5441E04EB4404064D2A5597
:100CF000441E04EB4404641C2955441E04EB4404C4
:100D0000A41C2B5530BD00002C0000202DE9F04123
:100D10000746884614461D46002641463846FFF7DA
:100D2000C3FA06E0A047502000F02CFA06F150006C
:100D300086B2AE42F6DBFFF7C1FAFFF7E1FB4FF4F4
:100D4000487000F01FFABDE8F081704710B5044606
:100D50002046FFF799FA0446002C05DB00200749DE
:100D6000086007490C8008E00120044908606042DF
:100D700041F61F41081A0249088010BDB88121427E
:100D80003808004010B504462046FFF77DFA0446B7
:100D9000002C05DB00200749086007490C8008E0AB
:100DA000012004490860604241F61F41081A0249C7
:100DB000088010BDB48121423408004030B504469B
:100DC0000025FFF7FFFD1F48006840F480301D49F3
:100DD000086000BF1B480068400C0028FAD04FF4A0
:100DE000806018494860A01EC4B20846406840EAC6
:100DF000844048600846406840F4803048601248AB
:100E0000006840F03200104908600E48006840F069
:100E100080700C49086000BF0A480068400E002836
:100E2000FAD00848406840F002000649486005E0F2
:100E300004484068C0F3870505F00305022DF7D18B
:100E400030BD00000010024000200240704721B178
:100E5000028842F08002028004E002884FF67F732D
:100E60001A400280704721B1028842F001020280DC
:100E700004E002884FF6FE731A40028070470000BB
:100E800070B5002400220023058C4FF6FE76354015
:100E90000584028C8388048B4FF68F752C40B51E19
:100EA0002C400D882C43751E2A400D892A434D88FD
:100EB0002A43144DA8420BD0134DA84208D0134D1D
:100EC000A84205D0124DA84202D0124DA84213D11B
:100ED0004FF6F7752A404D892A434FF6FB752A4095
:100EE0008D882A434FF6FF652B404FF6FF552B4068
:100EF0008D892B43CD892B4383800483CD888586C0
:100F0000028470BD002C01400034014000400140CB
:100F100000440140004801400A460021018B4FF681
:100F2000F7731940114301837047000070B5002426
:100F300000220023058C4FF6EF7635400584028CA5
:100F40008388048B48F6FF752C404FF6FF452C40F4
:100F50000D884FF6FF7606EA05252C434FF6DF7520
:100F60002A400D8906EA05152A434D8806EA05152B
:100F70002A43154DA84202D0144DA8421DD14FF668
:100F80007F752A404D894FF6FF7606EA05152A43FC
:100F90004FF6BF752A408D8806EA05152A434FF69D
:100FA000FF352B404FF2FF752B408D8906EA8505F2
:100FB0002B43CD8906EA85052B4383800483CD88A6
:100FC0000587028470BD0000002C01400034014000
:100FD0000A460021018B4FF2FF7319404FF6FF7351
:100FE00003EA0223194301837047002101804180F5
:100FF0008180C180018141818181C1817047000070
:10100000002202881D4B98420ED01D4B98420BD0F7
:10101000B0F1804F08D01B4B984205D01A4B984234
:1010200002D01A4B984204D14FF68F731A404B8866
:101030001A43174B984207D0164B984204D04FF6EC
:10104000FF431A40CB881A4302808B8883850B8824
:1010500003850A4B98420BD0094B984208D00E4B9F
:10106000984205D00D4B984202D00D4B984201D1C9
:101070000B7A03860123838270470000002C014015
:10108000003401400004004000080040000C004013
:1010900000100040001400400040014000440140A6
:1010A000004801404FF6FF71818000210180C1801E
:1010B000418001727047000010B540F225510A4886
:1010C00000F018F800B910BD074800F03DF8C4B2B0
:1010D0000D2C01D00A2C00D1F5E704480470012042
:1010E0000349087000BFEEE700380140040000200B
:1010F0000500002070B502460024002300250020D2
:1011000040F66A16B14200D100BFC1F3421501F0AA
:101110001F03012606FA03F3012D02D196893340FD
:1011200006E0022D02D1168A334001E0968A334050
:101130000C12012606FA04F41688344013B10CB1DF
:10114000012000E0002070BD01468888C0F308003F
:10115000704700BFFEE7704708B501211020FFF778
:1011600097FC4FF4C040ADF8000010208DF803004C
:1011700003208DF8020069460148FFF71CF908BDFD
:101180000010014007E041F64B4100BF0A1EA1F1EB
:10119000010399B2FAD1021EA0F1010398B2F2D173
:1011A000704706E0082100BF0A1EA1F1010399B2B1
:1011B000FAD1021EA0F1010398B2F3D170470000EA
:1011C0000920FFF7FBFD0220FFF730FC0220FFF7AC
:1011D0007FF90120FFF77CF9FFF776F8FFF7BCFFF6
:1011E000FFF76CF8FFF78CF940F6B830FFF7CAFF4D
:1011F0002DE04FF44863164A002141F27070FFF76A
:1012000085FD4FF44863134A41F270710020FFF7E7
:101210007DFD4FF44863104A41F270710846FFF7B4
:1012200075FD4FF448630D4A0D490846FFF76EFD02
:101230004FF448630B4A0A494842FFF767FD4FF4F1
:101240004863094A41F270714842FFF75FFDD0E7F9
:10125000E906000865050008C5050008290600081C
:1012600090E8FFFF910600080D050008FF0000FF51
:10127000FF0000FF0000FFFF0000FFFF00FFFF0076
:1012800000FFFF0000FF0000FFFF0000FFFF00FF66
:10129000FFA05A2D0FFFA05A2D0F0000BC1200080E
:1012A00000000020140000006C010008D0120008AB
:1012B00014000020940200008801000800000000D3
:1012C0000000010100000000000000000A00000012
:04000005080001CF1F
:00000001FF
