:020000040800F2
:1000000000040020D7010008CD070008EF06000813
:10001000C9070008950400086311000800000000EB
:10002000000000000000000000000000C5090008FA
:10003000990400080000000041080008590A00085F
:10004000F7010008F7010008F7010008F7010008B0
:10005000F7010008F7010008F7010008F7010008A0
:10006000F7010008F7010008F7010008F701000890
:10007000F7010008F7010008F7010008F701000880
:10008000F7010008F7010008F7010008F701000870
:10009000F7010008F7010008F7010008F701000860
:1000A000F7010008F7010008F7010008F701000850
:1000B000F7010008F7010008F7010008F701000840
:1000C000F7010008F7010008F7010008F701000830
:1000D000F7010008750F0008F7010008F701000894
:1000E000F7010008F7010008F7010008F701000810
:1000F000F7010008F7010008F7010008F701000800
:10010000F7010008F7010008F7010008F7010008EF
:10011000F7010008F7010008F7010008F7010008DF
:10012000F7010008F7010008F7010008F7010008CF
:1001300000F002F800F03FF80AA090E8000C8244BA
:100140008344AAF10107DA4501D100F034F8AFF297
:10015000090EBAE80F0013F0010F18BFFB1A43F0A5
:1001600001031847C8110000E8110000103A24BF2D
:1001700078C878C1FAD8520724BF30C830C144BF0C
:1001800004680C607047000000230024002500264E
:10019000103A28BF78C1FBD8520728BF30C148BFEA
:1001A0000B607047642900F07B80002070471FB50A
:1001B0001FBD10B510BD00F03BF91146FFF7F7FF6A
:1001C00001F006F800F059F903B4FFF7F2FF03BCA1
:1001D00000F0C9FF70470B4880470B4981F308883E
:1001E0000A480047FEE7FEE7FEE7FEE7FEE7FEE718
:1001F000FEE7FEE7FEE7FEE705480649044A064B30
:1002000070470000D5010008980200203101000865
:1002100098000020980200209800002070470000FD
:100220000FB4044910B503AA029800F0D3F810BC2B
:100230005DF814FB000000202DE9F0410E46044655
:10024000002020622046E168884730B3252805D089
:10025000D4E901219047206A401CF2E7E16820467A
:1002600000278847050018D0A5F14100192802D8B9
:1002700020354FF400673246294620462760FFF7B5
:1002800091FF40B1012804D0F61D26F0070608367C
:10029000D8E7361DD6E72846DAE7206ABDE8F081C0
:1002A0002DE9F0410646002410687529314616A54F
:1002B00010D0AFF30080002802DA404213A507E017
:1002C00031688A0701D512A502E0490704D511A5B6
:1002D000012401E0AFF3008000210A2206F1240787
:1002E00009E0B0FBF2FCB0FBF2F302FB1C00303083
:1002F00078541846491C0028F3D123462A46304634
:10030000BDE8F04100F00CB8000000002D00000036
:100310002B000000200000007047704770477047B6
:100320002DE9F0470D4699469246044600F124080F
:100330000168880604D5E06921F01001216000E021
:100340000120A84201DD471B00E00027A1697A19BE
:1003500002EB0900081AA0612078C00602D42046EA
:10036000AFF30080002608E0D4E901211AF8060066
:100370009047206A401C761C20624E45F4DB2078B2
:10038000C0060AD52046AFF3008006E0D4E901217B
:1003900030209047206A401C2062381EA7F10107D8
:1003A000F4DC07E0D4E9012118F805009047206A41
:1003B000401C2062281EA5F10105F3DC2046AFF3A6
:1003C00000802078000602D50220BDE8F0870120D9
:1003D000FBE70000074B70B50D467B4400F011F8B9
:1003E0000446284600F020F810B14FF0FF3070BDF1
:1003F000204670BDD70D000001694A1C02610878D3
:10040000704700B58FB0CDE9013100210591054954
:100410007944CDE9031011466846FFF70DFF0FB090
:1004200000BD0000E5FFFFFF007B00F0800070478B
:10043000754600F02BF8AE4605006946534620F09D
:100440000700854618B020B5FFF7D6FEBDE820406E
:100450004FF000064FF000074FF000084FF0000B80
:1004600021F00701AC46ACE8C009ACE8C009ACE833
:10047000C009ACE8C0098D46704710B50446AFF31B
:1004800000802046BDE81040FFF79EBE0048704740
:100490003800002000BFFEE77047000000B587B0BD
:1004A0000121084600F0CEF90121042000F0DAF91C
:1004B0000320ADF8000004208DF8030069461E48B3
:1004C00000F08AF804A800F04BFD0020ADF8100001
:1004D0004FF6FF70ADF814000020ADF81600ADF82F
:1004E000120004A94FF0804000F0E8FC00231A46F7
:1004F00003214FF0804000F029FC01A800F09EFC91
:100500000A20ADF80C0001A9400700F041FC0121D0
:10051000880700F009FC01221146900700F097FCC3
:1005200000214FF0804000F09BFC0121880700F083
:1005300001FC07B000BD00000008014000B587B015
:100540000121022000F07EF90121042000F08AF947
:10055000C020ADF8000004208DF8030069461C4857
:1005600000F03AF804A800F0FBFC0020ADF8100001
:100570004FF6FF70ADF814000020ADF81600ADF88E
:10058000120004A9134800F099FC00231A46032125
:10059000104800F0DBFB01A800F050FC0A20ADF889
:1005A0000C0001A90B4800F0F3FB0121094800F001
:1005B000BBFB01221146074800F049FC0021054819
:1005C00000F04EFC0121034800F0B4FB07B000BD71
:1005D00000080140000400402DE9F04102460025DA
:1005E0000026002000230024002791F803C00CF00F
:1005F0000F0591F803C00CF0100CBCF1000F03D0F4
:1006000091F802C04CEA050591F800C0BCF1000F5A
:1006100031D0146800202BE04FF0010C0CFA00F3ED
:10062000B1F800C00CEA03069E4220D183004FF0CF
:100630000F0C0CFA03F7BC4305FA03FC4CEA040464
:1006400091F803C0BCF1280F06D14FF0010C0CFA51
:1006500000FCC2F814C00AE091F803C0BCF1480FD6
:1006600005D14FF0010C0CFA00FCC2F810C0401C80
:100670000828D1D31460B1F800C0BCF1FF0F34DDFD
:10068000546800202EE000F1080C4FF0010808FA31
:100690000CF3B1F800C00CEA03069E4221D183009E
:1006A0004FF00F0C0CFA03F7BC4305FA03FC4CEABD
:1006B000040491F803C0BCF1280F05D100F1080C27
:1006C00008FA0CF8C2F8148091F803C0BCF1480F86
:1006D00007D100F1080C4FF0010808FA0CF8C2F835
:1006E0001080401C0828CED35460BDE8F08100BFC4
:1006F000FEE7000001464906084A926942F00102FD
:10070000064B9A61064A526822F0E062044B5A6036
:100710001A4652680A435A607047000000100240AF
:100720000000014000B5002015490861C860142090
:10073000486100208861C8610846006840F00100F7
:100740000860084640680F4908400D49486008465F
:1007500000680D4908400A4908600846006820F40E
:10076000802008600846406820F4FE0048600020B1
:10077000886000214FF0006000F01CF800BD000010
:10078000001002400000FFF8FFFFF6FE01460723BD
:1007900023EA01021202054B18684FF6FF031840C6
:1007A000034B18431043014B186070470CED00E0F9
:1007B0000000FA05024A0A400243024B1A607047E1
:1007C00080FFFF1F08ED00E000BFFEE7704700005C
:1007D00070B5002100230F22C47804B3154C24689F
:1007E00004F4E064C4F5E064210AC1F10403CA40E2
:1007F000447804FA03F184781440214309010E4C33
:100800000678A155047804F01F050124AC40057852
:100810006D11AD0005F1E025C5F8004109E004784F
:1008200004F01F050124AC40044D0678761145F80C
:10083000264070BD0CED00E000E400E080E100E047
:100840007047000029B1064AD2690243044BDA61BD
:1008500004E0034AD2698243014BDA617047000029
:100860000010024029B1064A92690243044B9A6182
:1008700004E0034A92698243014B9A617047000089
:100880000010024030B500210022002400232D4D2D
:100890006D6805F00C0121B1042905D0082923D188
:1008A00005E0294D056022E0274D05601FE0254D3C
:1008B0006D6805F47012234D6D6805F480340225CF
:1008C00005EB92421CB9214D554305600BE01D4DCF
:1008D0006D6805F400351DB11C4D5543056002E0FF
:1008E000194D5543056002E0174D056000BF00BF7C
:1008F000144D6D6805F0F0010909154D6B5C056834
:10090000DD4045600F4D6D6805F4E061090A104D4A
:100910006B5C4568DD4085600A4D6D6805F460518B
:10092000C90A0B4D6B5C4568DD40C560054D6D68BF
:1009300005F44041890B074D6B5CC568B5FBF3F5C9
:10094000056130BD0010024000127A0000093D0030
:10095000060000201600002070B50546022D02D0CA
:10096000032D23D111E00121880700F0E0F94FF0B9
:100970008040808C00B2104908600846046800215D
:100980004FF0804000F06CFA12E001210B4800F0BB
:10099000CEF90A482430008800B2094908600846A8
:1009A00004680021054800F05BFA01E0002400BF64
:1009B00000BF204670BD0000300000200004004051
:1009C000340000207047000030B504460025FFF7D2
:1009D000A9FE1F48006840F480301D49086000BF30
:1009E0001B480068400C0028FAD04FF4806018497A
:1009F0004860A01EC4B20846406840EA844048608F
:100A00000846406840F4803048601248006840F072
:100A10003200104908600E48006840F080700C49B0
:100A2000086000BF0A480068400E0028FAD0084855
:100A3000406840F002000649486005E0044840680C
:100A4000C0F3870505F00305022DF7D130BD000086
:100A5000001002400020024010B50A480068401C07
:100A6000084908600846006807490968B0FBF1F2C8
:100A700001FB120020B900200249086000F006F8CE
:100A800010BD0000280000202400002010B5022026
:100A9000FFF762FF084908600320FFF75DFF074981
:100AA00008600548016806A0FFF7BAFB0348016823
:100AB00008A0FFF7B5FB10BD1C000020200000209F
:100AC0006C656674207370656564203A2025640D3A
:100AD0000A0000007269676874207370656564209D
:100AE0003A2025640D0A0000F0B50C461546002298
:100AF0000021068C4FF6FE773E400684028B018C67
:100B00004FF60C7632407E1C06EA03162E43324323
:100B1000104EB0420ED0104EB0420BD0B0F1804F0C
:100B200008D00E4EB04205D00D4EB04202D00D4E50
:100B3000B04206D14FF6FD76314044F00106314314
:100B400005E04FF6F576314044F00106314302836B
:100B50000184F0BD002C014000340140000400403D
:100B600000080040000C0040F0B50C46154600227D
:100B700000210026078C4FF6EF7C07EA0C0707845C
:100B8000028B018C4FF6FF7707EA041640F6FF4709
:100B90003A404FF6FF7707EA03373A434FF6FF77BD
:100BA00007EA05273A43114FB8420ED0104FB8421A
:100BB0000BD0B0F1804F08D00E4FB84205D00E4F89
:100BC000B84202D00D4FB84206D14FF6DF77394018
:100BD00046F01007394305E04FF65F77394044F09F
:100BE0001007394302830184F0BD0000002C01404E
:100BF000003401400004004000080040000C0040A8
:100C0000F0B50C461546002200210026078C4FF651
:100C1000FF6C07EA0C070784828B018C4FF6FF7785
:100C200007EA04264FF60C773A404FF6FF7707EABB
:100C300003172F433A43114FB8420ED0104FB8421A
:100C40000BD0B0F1804F08D00E4FB84205D00E4FF8
:100C5000B84202D00D4FB84206D14FF6FF57394087
:100C600046F48077394305E04FF2FF57394044F4AA
:100C70008077394382830184F0BD0000002C01405D
:100C8000003401400004004000080040000C004017
:100C9000F0B50C461546002200210026078C4EF6C2
:100CA000FF7C07EA0C070784828B018C4FF6FF77E5
:100CB00007EA043640F6FF473A404FF6FF7707EA67
:100CC00005273A434FF6FF7707EA03373A43114FB8
:100CD000B8420ED0104FB8420BD0B0F1804F08D0C0
:100CE0000E4FB84205D00E4FB84202D00D4FB84259
:100CF00006D14DF6FF77394046F48057394305E079
:100D000047F6FF57394044F48057394382830184C2
:100D1000F0BD0000002C0140003401400004004000
:100D200000080040000C0040CA4302827047CA43DA
:100D30000282704721B1028842F00102028004E081
:100D400002884FF6FE731A4002807047F0B50C46D9
:100D500015461E460021002200230189028B038CC8
:100D60004FF6F877394021434FF6FC473A4040F2BE
:100D700001173A434FF6DD773B404FF6FF7707EA1E
:100D800006172F433B43018102830384F0BD00001B
:100D900070B505460C46244885420ED0234885424E
:100DA0000BD0B5F1804F08D02148854205D02148AD
:100DB000854202D02048854200D100E000BF208853
:100DC00050B92389A28861882846FFF78DFEE18803
:100DD000284600F047F825E0208804280AD1238916
:100DE000A28861882846FFF7BFFEE188284600F008
:100DF00042F817E0208808280AD12389A288618850
:100E00002846FFF7FDFEE188284600F041F809E09A
:100E10002389A28861882846FFF73AFFE18828469F
:100E200000F03FF870BD0000002C0140003401408C
:100E30000004004000080040000C00400021018038
:100E40004180012181800021C180018170471AB158
:100E500083890B43838102E083898B4383817047BD
:100E600081847047028B4FF6F3731A400283028B22
:100E70000A4302837047028B4FF2FF331A4002830A
:100E8000028B4FF6FF7303EA01231A430283704774
:100E9000828B4FF6F3731A408283828B0A438283DC
:100EA0007047828B4FF2FF331A408283828B4FF65A
:100EB000FF7303EA01231A438283704700220288EA
:100EC0001D4B98420ED01D4B98420BD0B0F1804F75
:100ED00008D01B4B984205D01A4B984202D01A4BAF
:100EE000984204D14FF68F731A404B881A43174B20
:100EF000984207D0164B984204D04FF6FF431A4051
:100F0000CB881A4302808B8883850B8803850A4B24
:100F100098420BD0094B984208D00E4B984205D00E
:100F20000D4B984202D00D4B984201D10B7A0386AB
:100F30000123838270470000002C014000340140EF
:100F40000004004000080040000C00400010004079
:100F500000140040004001400044014000480140AE
:100F60004FF6FF71818000210180C18041800172B4
:100F70007047000010B540F225510A4800F024F8EF
:100F800000B910BD074800F0DBF8C4B20D2C01D049
:100F90000A2C00D1F5E704480470012003490870C9
:100FA00000BFEEE7003801400400002005000020EB
:100FB00021B1828942F40052828104E082894DF697
:100FC000FF731A408281704770B5024600240023E7
:100FD0000025002040F66A16B14200D100BFC1F3DF
:100FE000421501F01F03012606FA03F3012D02D179
:100FF0009689334006E0022D02D1168A334001E083
:10100000968A33400C12012606FA04F416883440FE
:1010100013B10CB1012000E0002070BDF0B5034613
:10102000002400260025002040F66A17B94200D1AE
:1010300000BF1846C1F3421401F01F06012707FA4A
:1010400006F5012C01D10C3004E0022C01D1103046
:1010500000E014301AB107682F43076002E0076808
:10106000AF430760F0BD00002DE9F04786B00546AC
:101070000E460024A24600BFA1460027B08900B159
:1010800000BF2F462C8A4CF6FF700440F0880443C2
:101090002C82AC894EF6F3100440B08831890843A5
:1010A000718908430443AC81AC8A4FF6FF40044089
:1010B000B0890443AC8201A8FFF7E4FB1F488742D4
:1010C00002D1DDF810A001E0DDF80CA0A88900F441
:1010D000004040B10AEBCA0000EB0A103168490039
:1010E000B0FBF1F807E00AEBCA0000EB0A10316828
:1010F0008900B0FBF1F86420B8FBF0F0040120098E
:10110000642101FB1089A88900F4004040B132201D
:1011100000EBC900B0FBF1F000F00700044308E069
:10112000322000EB09106421B0FBF1F000F00F0059
:1011300004432C8106B0BDE8F08700000038014070
:1011400001468888C0F3080070474FF416510160CB
:1011500000218180C18001810C2141810021818198
:10116000704700BFFEE7704708B501211020FFF768
:1011700079FB4FF4C040ADF8000010208DF803005B
:1011800003208DF8020069460148FFF725FA08BDE3
:101190000010014007E041F64B4100BF0A1EA1F1DB
:1011A000010399B2FAD1021EA0F1010398B2F2D163
:1011B0007047000000BF054A128802F04002002A72
:1011C000F9D0C2B2014B1B1D1A8070470038014094
:1011D0000920FFF7F9FB0220FFF7D8FA4FF4E130BE
:1011E00000F050F80220FFF785FA0120FFF782FA9D
:1011F000FFF754F9FFF7A2F9FFF7B6FF642016498D
:1012000008601649B1F1807F00D31DE021F07F40D6
:10121000401E4FF0E022506150170F22002807DADD
:1012200013071D0E0E4B00F00F04241F1D5503E085
:1012300013071C0E0B4B1C5400BF00204FF0E02284
:1012400090610720106100BF07A0FEF7E9FF02E0F0
:101250006420FFF79FFFFBE72400002040190100F6
:1012600018ED00E000E400E0456E636F64657220F5
:101270007370656564207465737420726561647948
:101280000D0A000010B586B00446012144F20400A6
:10129000FFF7E8FA4FF40070ADF8140003208DF862
:1012A000160018208DF8170005A91E48FFF794F9BD
:1012B0004FF48060ADF8140004208DF8170005A9E4
:1012C0001848FFF789F925208DF8000003208DF8D4
:1012D00001008DF8020001208DF803006846FFF739
:1012E00077FA01A8FFF731FF01940020ADF808005C
:1012F000ADF80A00ADF80C00ADF810000C20ADF808
:101300000E0001A90848FFF7AFFE012240F2255167
:101310000548FFF783FE01210348FFF749FE06B0A9
:1013200010BD000000080140003801404C130008C7
:1013300000000020380000006C0100088413000841
:101340003800002060020000880100080000000052
:10135000000000000000010203040102030406076C
:101360000809020406080000000000000000000058
:101370006400000000000000000000000000000009
:041380000000000069
:04000005080001D717
:00000001FF
